{"contracts/Oilube.sol":{"Oilube":{"abi":[{"inputs":[],"stateMutability":"nonpayable","type":"constructor"},{"anonymous":false,"inputs":[{"indexed":false,"internalType":"string","name":"mName","type":"string"},{"indexed":false,"internalType":"string","name":"pName","type":"string"},{"indexed":false,"internalType":"uint256","name":"creationTime","type":"uint256"},{"indexed":false,"internalType":"address","name":"curHolder","type":"address"},{"indexed":false,"internalType":"bool","name":"isDelivered","type":"bool"},{"indexed":false,"internalType":"string[]","name":"path","type":"string[]"}],"name":"displayProductDetail","type":"event"},{"inputs":[],"name":"CheckID","outputs":[{"internalType":"bytes32","name":"","type":"bytes32"}],"stateMutability":"view","type":"function"},{"inputs":[{"internalType":"bytes32","name":"pID","type":"bytes32"}],"name":"CheckPath","outputs":[{"internalType":"string[]","name":"","type":"string[]"}],"stateMutability":"view","type":"function"},{"inputs":[{"internalType":"address","name":"add","type":"address"}],"name":"CheckRole","outputs":[{"internalType":"string","name":"","type":"string"}],"stateMutability":"view","type":"function"},{"inputs":[{"internalType":"address","name":"mAddress","type":"address"},{"internalType":"string","name":"pName","type":"string"}],"name":"NewInstance","outputs":[{"internalType":"bytes32","name":"","type":"bytes32"}],"stateMutability":"nonpayable","type":"function"},{"inputs":[{"internalType":"bytes32","name":"pID","type":"bytes32"}],"name":"PayToView","outputs":[{"components":[{"internalType":"string","name":"manufacturerName","type":"string"},{"internalType":"string","name":"productName","type":"string"},{"internalType":"uint256","name":"creationTime","type":"uint256"},{"internalType":"address","name":"currentHolder","type":"address"},{"internalType":"bool","name":"isDelivered","type":"bool"},{"internalType":"string[]","name":"pathRecord","type":"string[]"}],"internalType":"struct Oilube.productDetail","name":"","type":"tuple"}],"stateMutability":"payable","type":"function"},{"inputs":[{"internalType":"address","name":"acceptAddress","type":"address"},{"internalType":"bytes32","name":"pID","type":"bytes32"},{"internalType":"string","name":"location","type":"string"}],"name":"Purchase","outputs":[{"internalType":"bool","name":"","type":"bool"}],"stateMutability":"nonpayable","type":"function"},{"inputs":[{"internalType":"address","name":"rAdd","type":"address"},{"internalType":"string","name":"role","type":"string"},{"internalType":"string","name":"name","type":"string"},{"internalType":"string","name":"location","type":"string"}],"name":"Register","outputs":[{"internalType":"bool","name":"","type":"bool"}],"stateMutability":"nonpayable","type":"function"},{"inputs":[{"internalType":"address","name":"acceptAddress","type":"address"},{"internalType":"bytes32","name":"pID","type":"bytes32"}],"name":"Transfer","outputs":[{"internalType":"bool","name":"","type":"bool"}],"stateMutability":"nonpayable","type":"function"},{"inputs":[],"name":"Withdraw","outputs":[],"stateMutability":"nonpayable","type":"function"},{"inputs":[],"name":"fee","outputs":[{"internalType":"uint256","name":"","type":"uint256"}],"stateMutability":"view","type":"function"},{"inputs":[],"name":"owner","outputs":[{"internalType":"address","name":"","type":"address"}],"stateMutability":"view","type":"function"},{"stateMutability":"payable","type":"receive"}],"evm":{"bytecode":{"linkReferences":{},"object":"608060405234801561001057600080fd5b5033600260006101000a81548173ffffffffffffffffffffffffffffffffffffffff021916908373ffffffffffffffffffffffffffffffffffffffff1602179055506040518060400160405280600c81526020017f48656c6c6f20576f726c642100000000000000000000000000000000000000008152506000908161009691906102ec565b506103be565b600081519050919050565b7f4e487b7100000000000000000000000000000000000000000000000000000000600052604160045260246000fd5b7f4e487b7100000000000000000000000000000000000000000000000000000000600052602260045260246000fd5b6000600282049050600182168061011d57607f821691505b6020821081036101305761012f6100d6565b5b50919050565b60008190508160005260206000209050919050565b60006020601f8301049050919050565b600082821b905092915050565b6000600883026101987fffffffffffffffffffffffffffffffffffffffffffffffffffffffffffffffff8261015b565b6101a2868361015b565b95508019841693508086168417925050509392505050565b6000819050919050565b6000819050919050565b60006101e96101e46101df846101ba565b6101c4565b6101ba565b9050919050565b6000819050919050565b610203836101ce565b61021761020f826101f0565b848454610168565b825550505050565b600090565b61022c61021f565b6102378184846101fa565b505050565b5b8181101561025b57610250600082610224565b60018101905061023d565b5050565b601f8211156102a05761027181610136565b61027a8461014b565b81016020851015610289578190505b61029d6102958561014b565b83018261023c565b50505b505050565b600082821c905092915050565b60006102c3600019846008026102a5565b1980831691505092915050565b60006102dc83836102b2565b9150826002028217905092915050565b6102f58261009c565b67ffffffffffffffff81111561030e5761030d6100a7565b5b6103188254610105565b61032382828561025f565b600060209050601f8311600181146103565760008415610344578287015190505b61034e85826102d0565b8655506103b6565b601f19841661036486610136565b60005b8281101561038c57848901518255600182019150602085019450602081019050610367565b868310156103a957848901516103a5601f8916826102b2565b8355505b6001600288020188555050505b505050505050565b612bcd806103cd6000396000f3fe6080604052600436106100a05760003560e01c8063a21a269d11610064578063a21a269d146101a5578063c44f5da3146101d0578063dc47bfcd1461020d578063ddca3f431461024a578063e27af26f14610275578063e7d7ecb8146102a5576100a7565b8063396436b0146100ac57806357ea89b6146100e95780635e28c08614610100578063685c13ad1461013d5780638da5cb5b1461017a576100a7565b366100a757005b600080fd5b3480156100b857600080fd5b506100d360048036038101906100ce9190611b21565b6102e2565b6040516100e09190611ca0565b60405180910390f35b3480156100f557600080fd5b506100fe6103d1565b005b34801561010c57600080fd5b5061012760048036038101906101229190611e55565b61057b565b6040516101349190611edf565b60405180910390f35b34801561014957600080fd5b50610164600480360381019061015f9190611efa565b6106b1565b6040516101719190611edf565b60405180910390f35b34801561018657600080fd5b5061018f610998565b60405161019c9190611f49565b60405180910390f35b3480156101b157600080fd5b506101ba6109be565b6040516101c79190611f73565b60405180910390f35b3480156101dc57600080fd5b506101f760048036038101906101f29190611f8e565b6109c8565b6040516102049190611f73565b60405180910390f35b34801561021957600080fd5b50610234600480360381019061022f9190611fea565b61128a565b6040516102419190611edf565b60405180910390f35b34801561025657600080fd5b5061025f61133c565b60405161026c91906120be565b60405180910390f35b61028f600480360381019061028a9190611b21565b611346565b60405161029c9190612223565b60405180910390f35b3480156102b157600080fd5b506102cc60048036038101906102c79190612245565b611692565b6040516102d991906122bc565b60405180910390f35b606060046000838152602001908152602001600020600401805480602002602001604051908101604052809291908181526020016000905b828210156103c65783829060005260206000200180546103399061230d565b80601f01602080910402602001604051908101604052809291908181526020018280546103659061230d565b80156103b25780601f10610387576101008083540402835291602001916103b2565b820191906000526020600020905b81548152906001019060200180831161039557829003601f168201915b50505050508152602001906001019061031a565b505050509050919050565b600260009054906101000a900473ffffffffffffffffffffffffffffffffffffffff1673ffffffffffffffffffffffffffffffffffffffff163373ffffffffffffffffffffffffffffffffffffffff1614610461576040517f08c379a0000000000000000000000000000000000000000000000000000000008152600401610458906123b0565b60405180910390fd5b6000479050600081116104a9576040517f08c379a00000000000000000000000000000000000000000000000000000000081526004016104a09061241c565b60405180910390fd5b6000600260009054906101000a900473ffffffffffffffffffffffffffffffffffffffff1673ffffffffffffffffffffffffffffffffffffffff16826040516104f19061246d565b60006040518083038185875af1925050503d806000811461052e576040519150601f19603f3d011682016040523d82523d6000602084013e610533565b606091505b5050905080610577576040517f08c379a000000000000000000000000000000000000000000000000000000000815260040161056e906124ce565b60405180910390fd5b5050565b60006004600084815260200190815260200160002060030160149054906101000a900460ff16156105af57600090506106aa565b836004600085815260200190815260200160002060030160006101000a81548173ffffffffffffffffffffffffffffffffffffffff021916908373ffffffffffffffffffffffffffffffffffffffff16021790555060016004600085815260200190815260200160002060030160146101000a81548160ff021916908315150217905550600460008481526020019081526020016000206004018261065342611766565b604051602001610664929190612576565b6040516020818303038152906040529080600181540180825580915050600190039060005260206000200160009091909190915090816106a49190612764565b50600190505b9392505050565b60006004600083815260200190815260200160002060030160149054906101000a900460ff16806107f157506107ef6040518060400160405280600981526020017f4d6964646c656d616e0000000000000000000000000000000000000000000000815250600360008673ffffffffffffffffffffffffffffffffffffffff1673ffffffffffffffffffffffffffffffffffffffff16815260200190815260200160002060000180546107639061230d565b80601f016020809104026020016040519081016040528092919081815260200182805461078f9061230d565b80156107dc5780601f106107b1576101008083540402835291602001916107dc565b820191906000526020600020905b8154815290600101906020018083116107bf57829003601f168201915b505050505061183490919063ffffffff16565b155b156107ff5760009050610992565b826004600084815260200190815260200160002060030160006101000a81548173ffffffffffffffffffffffffffffffffffffffff021916908373ffffffffffffffffffffffffffffffffffffffff16021790555060046000838152602001908152602001600020600401600360008573ffffffffffffffffffffffffffffffffffffffff1673ffffffffffffffffffffffffffffffffffffffff168152602001908152602001600020600001600360008673ffffffffffffffffffffffffffffffffffffffff1673ffffffffffffffffffffffffffffffffffffffff168152602001908152602001600020600101600360008773ffffffffffffffffffffffffffffffffffffffff1673ffffffffffffffffffffffffffffffffffffffff16815260200190815260200160002060020161093942611766565b60405160200161094c94939291906128b9565b60405160208183030381529060405290806001815401808255809150506001900390600052602060002001600090919091909150908161098c9190612764565b50600190505b92915050565b600260009054906101000a900473ffffffffffffffffffffffffffffffffffffffff1681565b6000600154905090565b6000610adc6040518060400160405280600c81526020017f4d616e7566616374757265720000000000000000000000000000000000000000815250600360008673ffffffffffffffffffffffffffffffffffffffff1673ffffffffffffffffffffffffffffffffffffffff1681526020019081526020016000206000018054610a509061230d565b80601f0160208091040260200160405190810160405280929190818152602001828054610a7c9061230d565b8015610ac95780601f10610a9e57610100808354040283529160200191610ac9565b820191906000526020600020905b815481529060010190602001808311610aac57829003601f168201915b505050505061183490919063ffffffff16565b610aeb576000801b9050611284565b6000600167ffffffffffffffff811115610b0857610b07611d2a565b5b604051908082528060200260200182016040528015610b3b57816020015b6060815260200190600190039081610b265790505b509050600360008573ffffffffffffffffffffffffffffffffffffffff1673ffffffffffffffffffffffffffffffffffffffff168152602001908152602001600020600001600360008673ffffffffffffffffffffffffffffffffffffffff1673ffffffffffffffffffffffffffffffffffffffff168152602001908152602001600020600101600360008773ffffffffffffffffffffffffffffffffffffffff1673ffffffffffffffffffffffffffffffffffffffff168152602001908152602001600020600201610c0d42611766565b604051602001610c2094939291906128b9565b60405160208183030381529060405281600081518110610c4357610c42612924565b5b602002602001018190525060006040518060c00160405280600360008873ffffffffffffffffffffffffffffffffffffffff1673ffffffffffffffffffffffffffffffffffffffff1681526020019081526020016000206001018054610ca89061230d565b80601f0160208091040260200160405190810160405280929190818152602001828054610cd49061230d565b8015610d215780601f10610cf657610100808354040283529160200191610d21565b820191906000526020600020905b815481529060010190602001808311610d0457829003601f168201915b505050505081526020018581526020014281526020018673ffffffffffffffffffffffffffffffffffffffff16815260200160001515815260200183815250905060008160200151826040015160016005600360008b73ffffffffffffffffffffffffffffffffffffffff1673ffffffffffffffffffffffffffffffffffffffff168152602001908152602001600020600101604051610dc19190612953565b908152602001604051809103902088604051610ddd919061296a565b908152602001604051809103902054610df691906129b0565b604051602001610e0893929190612a05565b60405160208183030381529060405280519060200120905081600460008381526020019081526020016000206000820151816000019081610e499190612764565b506020820151816001019081610e5f9190612764565b506040820151816002015560608201518160030160006101000a81548173ffffffffffffffffffffffffffffffffffffffff021916908373ffffffffffffffffffffffffffffffffffffffff16021790555060808201518160030160146101000a81548160ff02191690831515021790555060a0820151816004019080519060200190610eed9291906119af565b509050506005600360008873ffffffffffffffffffffffffffffffffffffffff1673ffffffffffffffffffffffffffffffffffffffff168152602001908152602001600020600101604051610f429190612953565b908152602001604051809103902085604051610f5e919061296a565b90815260200160405180910390206000815480929190610f7d90612a3e565b9190505550806001819055506000600460008381526020019081526020016000206040518060c0016040529081600082018054610fb99061230d565b80601f0160208091040260200160405190810160405280929190818152602001828054610fe59061230d565b80156110325780601f1061100757610100808354040283529160200191611032565b820191906000526020600020905b81548152906001019060200180831161101557829003601f168201915b5050505050815260200160018201805461104b9061230d565b80601f01602080910402602001604051908101604052809291908181526020018280546110779061230d565b80156110c45780601f10611099576101008083540402835291602001916110c4565b820191906000526020600020905b8154815290600101906020018083116110a757829003601f168201915b50505050508152602001600282015481526020016003820160009054906101000a900473ffffffffffffffffffffffffffffffffffffffff1673ffffffffffffffffffffffffffffffffffffffff1673ffffffffffffffffffffffffffffffffffffffff1681526020016003820160149054906101000a900460ff1615151515815260200160048201805480602002602001604051908101604052809291908181526020016000905b8282101561121957838290600052602060002001805461118c9061230d565b80601f01602080910402602001604051908101604052809291908181526020018280546111b89061230d565b80156112055780601f106111da57610100808354040283529160200191611205565b820191906000526020600020905b8154815290600101906020018083116111e857829003601f168201915b50505050508152602001906001019061116d565b505050508152505090507fbd4db8f848af3f94c726fc28bc2decceba8e2d15e945c5b7011867e915ba5df9816000015182602001518360400151846060015185608001518660a0015160405161127496959493929190612a86565b60405180910390a1819450505050505b92915050565b600080604051806060016040528086815260200185815260200184815250905080600360008873ffffffffffffffffffffffffffffffffffffffff1673ffffffffffffffffffffffffffffffffffffffff16815260200190815260200160002060008201518160000190816112ff9190612764565b5060208201518160010190816113159190612764565b50604082015181600201908161132b9190612764565b509050506001915050949350505050565b650246139ca80081565b61134e611a08565b650246139ca8003414611396576040517f08c379a000000000000000000000000000000000000000000000000000000000815260040161138d90612b48565b60405180910390fd5b6000600460008481526020019081526020016000206040518060c00160405290816000820180546113c69061230d565b80601f01602080910402602001604051908101604052809291908181526020018280546113f29061230d565b801561143f5780601f106114145761010080835404028352916020019161143f565b820191906000526020600020905b81548152906001019060200180831161142257829003601f168201915b505050505081526020016001820180546114589061230d565b80601f01602080910402602001604051908101604052809291908181526020018280546114849061230d565b80156114d15780601f106114a6576101008083540402835291602001916114d1565b820191906000526020600020905b8154815290600101906020018083116114b457829003601f168201915b50505050508152602001600282015481526020016003820160009054906101000a900473ffffffffffffffffffffffffffffffffffffffff1673ffffffffffffffffffffffffffffffffffffffff1673ffffffffffffffffffffffffffffffffffffffff1681526020016003820160149054906101000a900460ff1615151515815260200160048201805480602002602001604051908101604052809291908181526020016000905b828210156116265783829060005260206000200180546115999061230d565b80601f01602080910402602001604051908101604052809291908181526020018280546115c59061230d565b80156116125780601f106115e757610100808354040283529160200191611612565b820191906000526020600020905b8154815290600101906020018083116115f557829003601f168201915b50505050508152602001906001019061157a565b505050508152505090507fbd4db8f848af3f94c726fc28bc2decceba8e2d15e945c5b7011867e915ba5df9816000015182602001518360400151846060015185608001518660a0015160405161168196959493929190612a86565b60405180910390a180915050919050565b6060600360008373ffffffffffffffffffffffffffffffffffffffff1673ffffffffffffffffffffffffffffffffffffffff16815260200190815260200160002060000180546116e19061230d565b80601f016020809104026020016040519081016040528092919081815260200182805461170d9061230d565b801561175a5780601f1061172f5761010080835404028352916020019161175a565b820191906000526020600020905b81548152906001019060200180831161173d57829003601f168201915b50505050509050919050565b6060600060016117758461185c565b01905060008167ffffffffffffffff81111561179457611793611d2a565b5b6040519080825280601f01601f1916602001820160405280156117c65781602001600182028036833780820191505090505b509050600082602083010190505b600115611829578080600190039150507f3031323334353637383961626364656600000000000000000000000000000000600a86061a8153600a858161181d5761181c612b68565b5b049450600085036117d4575b819350505050919050565b600081518351148015611854575081805190602001208380519060200120145b905092915050565b600080600090507a184f03e93ff9f4daa797ed6e38ed64bf6a1f01000000000000000083106118ba577a184f03e93ff9f4daa797ed6e38ed64bf6a1f01000000000000000083816118b0576118af612b68565b5b0492506040810190505b6d04ee2d6d415b85acef810000000083106118f7576d04ee2d6d415b85acef810000000083816118ed576118ec612b68565b5b0492506020810190505b662386f26fc10000831061192657662386f26fc10000838161191c5761191b612b68565b5b0492506010810190505b6305f5e100831061194f576305f5e100838161194557611944612b68565b5b0492506008810190505b612710831061197457612710838161196a57611969612b68565b5b0492506004810190505b60648310611997576064838161198d5761198c612b68565b5b0492506002810190505b600a83106119a6576001810190505b80915050919050565b8280548282559060005260206000209081019282156119f7579160200282015b828111156119f65782518290816119e69190612764565b50916020019190600101906119cf565b5b509050611a049190611a56565b5090565b6040518060c00160405280606081526020016060815260200160008152602001600073ffffffffffffffffffffffffffffffffffffffff168152602001600015158152602001606081525090565b5b80821115611a765760008181611a6d9190611a7a565b50600101611a57565b5090565b508054611a869061230d565b6000825580601f10611a985750611ab7565b601f016020900490600052602060002090810190611ab69190611aba565b5b50565b5b80821115611ad3576000816000905550600101611abb565b5090565b6000604051905090565b600080fd5b600080fd5b6000819050919050565b611afe81611aeb565b8114611b0957600080fd5b50565b600081359050611b1b81611af5565b92915050565b600060208284031215611b3757611b36611ae1565b5b6000611b4584828501611b0c565b91505092915050565b600081519050919050565b600082825260208201905092915050565b6000819050602082019050919050565b600081519050919050565b600082825260208201905092915050565b60005b83811015611bb4578082015181840152602081019050611b99565b60008484015250505050565b6000601f19601f8301169050919050565b6000611bdc82611b7a565b611be68185611b85565b9350611bf6818560208601611b96565b611bff81611bc0565b840191505092915050565b6000611c168383611bd1565b905092915050565b6000602082019050919050565b6000611c3682611b4e565b611c408185611b59565b935083602082028501611c5285611b6a565b8060005b85811015611c8e5784840389528151611c6f8582611c0a565b9450611c7a83611c1e565b925060208a01995050600181019050611c56565b50829750879550505050505092915050565b60006020820190508181036000830152611cba8184611c2b565b905092915050565b600073ffffffffffffffffffffffffffffffffffffffff82169050919050565b6000611ced82611cc2565b9050919050565b611cfd81611ce2565b8114611d0857600080fd5b50565b600081359050611d1a81611cf4565b92915050565b600080fd5b600080fd5b7f4e487b7100000000000000000000000000000000000000000000000000000000600052604160045260246000fd5b611d6282611bc0565b810181811067ffffffffffffffff82111715611d8157611d80611d2a565b5b80604052505050565b6000611d94611ad7565b9050611da08282611d59565b919050565b600067ffffffffffffffff821115611dc057611dbf611d2a565b5b611dc982611bc0565b9050602081019050919050565b82818337600083830152505050565b6000611df8611df384611da5565b611d8a565b905082815260208101848484011115611e1457611e13611d25565b5b611e1f848285611dd6565b509392505050565b600082601f830112611e3c57611e3b611d20565b5b8135611e4c848260208601611de5565b91505092915050565b600080600060608486031215611e6e57611e6d611ae1565b5b6000611e7c86828701611d0b565b9350506020611e8d86828701611b0c565b925050604084013567ffffffffffffffff811115611eae57611ead611ae6565b5b611eba86828701611e27565b9150509250925092565b60008115159050919050565b611ed981611ec4565b82525050565b6000602082019050611ef46000830184611ed0565b92915050565b60008060408385031215611f1157611f10611ae1565b5b6000611f1f85828601611d0b565b9250506020611f3085828601611b0c565b9150509250929050565b611f4381611ce2565b82525050565b6000602082019050611f5e6000830184611f3a565b92915050565b611f6d81611aeb565b82525050565b6000602082019050611f886000830184611f64565b92915050565b60008060408385031215611fa557611fa4611ae1565b5b6000611fb385828601611d0b565b925050602083013567ffffffffffffffff811115611fd457611fd3611ae6565b5b611fe085828601611e27565b9150509250929050565b6000806000806080858703121561200457612003611ae1565b5b600061201287828801611d0b565b945050602085013567ffffffffffffffff81111561203357612032611ae6565b5b61203f87828801611e27565b935050604085013567ffffffffffffffff8111156120605761205f611ae6565b5b61206c87828801611e27565b925050606085013567ffffffffffffffff81111561208d5761208c611ae6565b5b61209987828801611e27565b91505092959194509250565b6000819050919050565b6120b8816120a5565b82525050565b60006020820190506120d360008301846120af565b92915050565b6120e2816120a5565b82525050565b6120f181611ce2565b82525050565b61210081611ec4565b82525050565b600082825260208201905092915050565b600061212282611b4e565b61212c8185612106565b93508360208202850161213e85611b6a565b8060005b8581101561217a578484038952815161215b8582611c0a565b945061216683611c1e565b925060208a01995050600181019050612142565b50829750879550505050505092915050565b600060c08301600083015184820360008601526121a98282611bd1565b915050602083015184820360208601526121c38282611bd1565b91505060408301516121d860408601826120d9565b5060608301516121eb60608601826120e8565b5060808301516121fe60808601826120f7565b5060a083015184820360a08601526122168282612117565b9150508091505092915050565b6000602082019050818103600083015261223d818461218c565b905092915050565b60006020828403121561225b5761225a611ae1565b5b600061226984828501611d0b565b91505092915050565b600082825260208201905092915050565b600061228e82611b7a565b6122988185612272565b93506122a8818560208601611b96565b6122b181611bc0565b840191505092915050565b600060208201905081810360008301526122d68184612283565b905092915050565b7f4e487b7100000000000000000000000000000000000000000000000000000000600052602260045260246000fd5b6000600282049050600182168061232557607f821691505b602082108103612338576123376122de565b5b50919050565b7f4f6e6c79206f776e65722063616e2063616c6c20746869732066756e6374696f60008201527f6e00000000000000000000000000000000000000000000000000000000000000602082015250565b600061239a602183612272565b91506123a58261233e565b604082019050919050565b600060208201905081810360008301526123c98161238d565b9050919050565b7f456d7074792062616c616e636500000000000000000000000000000000000000600082015250565b6000612406600d83612272565b9150612411826123d0565b602082019050919050565b60006020820190508181036000830152612435816123f9565b9050919050565b600081905092915050565b50565b600061245760008361243c565b915061246282612447565b600082019050919050565b60006124788261244a565b9150819050919050565b7f5769746864726177616c206661696c6564000000000000000000000000000000600082015250565b60006124b8601183612272565b91506124c382612482565b602082019050919050565b600060208201905081810360008301526124e7816124ab565b9050919050565b7f436f6e73756d65722c416e6f6e796d6f75732c00000000000000000000000000815250565b600081905092915050565b600061252a82611b7a565b6125348185612514565b9350612544818560208601611b96565b80840191505092915050565b7f2c00000000000000000000000000000000000000000000000000000000000000815250565b6000612581826124ee565b601382019150612591828561251f565b915061259c82612550565b6001820191506125ac828461251f565b91508190509392505050565b60008190508160005260206000209050919050565b60006020601f8301049050919050565b600082821b905092915050565b60006008830261261a7fffffffffffffffffffffffffffffffffffffffffffffffffffffffffffffffff826125dd565b61262486836125dd565b95508019841693508086168417925050509392505050565b6000819050919050565b600061266161265c612657846120a5565b61263c565b6120a5565b9050919050565b6000819050919050565b61267b83612646565b61268f61268782612668565b8484546125ea565b825550505050565b600090565b6126a4612697565b6126af818484612672565b505050565b5b818110156126d3576126c860008261269c565b6001810190506126b5565b5050565b601f821115612718576126e9816125b8565b6126f2846125cd565b81016020851015612701578190505b61271561270d856125cd565b8301826126b4565b50505b505050565b600082821c905092915050565b600061273b6000198460080261271d565b1980831691505092915050565b6000612754838361272a565b9150826002028217905092915050565b61276d82611b7a565b67ffffffffffffffff81111561278657612785611d2a565b5b612790825461230d565b61279b8282856126d7565b600060209050601f8311600181146127ce57600084156127bc578287015190505b6127c68582612748565b86555061282e565b601f1984166127dc866125b8565b60005b82811015612804578489015182556001820191506020850194506020810190506127df565b86831015612821578489015161281d601f89168261272a565b8355505b6001600288020188555050505b505050505050565b600081546128438161230d565b61284d8186612514565b94506001821660008114612868576001811461287d576128b0565b60ff19831686528115158202860193506128b0565b612886856125b8565b60005b838110156128a857815481890152600182019150602081019050612889565b838801955050505b50505092915050565b60006128c58287612836565b91506128d082612550565b6001820191506128e08286612836565b91506128eb82612550565b6001820191506128fb8285612836565b915061290682612550565b600182019150612916828461251f565b915081905095945050505050565b7f4e487b7100000000000000000000000000000000000000000000000000000000600052603260045260246000fd5b600061295f8284612836565b915081905092915050565b6000612976828461251f565b915081905092915050565b7f4e487b7100000000000000000000000000000000000000000000000000000000600052601160045260246000fd5b60006129bb826120a5565b91506129c6836120a5565b92508282019050808211156129de576129dd612981565b5b92915050565b6000819050919050565b6129ff6129fa826120a5565b6129e4565b82525050565b6000612a11828661251f565b9150612a1d82856129ee565b602082019150612a2d82846129ee565b602082019150819050949350505050565b6000612a49826120a5565b91507fffffffffffffffffffffffffffffffffffffffffffffffffffffffffffffffff8203612a7b57612a7a612981565b5b600182019050919050565b600060c0820190508181036000830152612aa08189612283565b90508181036020830152612ab48188612283565b9050612ac360408301876120af565b612ad06060830186611f3a565b612add6080830185611ed0565b81810360a0830152612aef8184611c2b565b9050979650505050505050565b7f496e636f72726563742066656520616d6f756e74000000000000000000000000600082015250565b6000612b32601483612272565b9150612b3d82612afc565b602082019050919050565b60006020820190508181036000830152612b6181612b25565b9050919050565b7f4e487b7100000000000000000000000000000000000000000000000000000000600052601260045260246000fdfea26469706673582212201e8d28910ecfb6b8298453b607b28ff0a120ababbaba93fe890630642b1c272964736f6c634300081c0033","opcodes":"PUSH1 0x80 PUSH1 0x40 MSTORE CALLVALUE DUP1 ISZERO PUSH2 0x10 JUMPI PUSH1 0x0 DUP1 REVERT JUMPDEST POP CALLER PUSH1 0x2 PUSH1 0x0 PUSH2 0x100 EXP DUP2 SLOAD DUP2 PUSH20 0xFFFFFFFFFFFFFFFFFFFFFFFFFFFFFFFFFFFFFFFF MUL NOT AND SWAP1 DUP4 PUSH20 0xFFFFFFFFFFFFFFFFFFFFFFFFFFFFFFFFFFFFFFFF AND MUL OR SWAP1 SSTORE POP PUSH1 0x40 MLOAD DUP1 PUSH1 0x40 ADD PUSH1 0x40 MSTORE DUP1 PUSH1 0xC DUP2 MSTORE PUSH1 0x20 ADD PUSH32 0x48656C6C6F20576F726C64210000000000000000000000000000000000000000 DUP2 MSTORE POP PUSH1 0x0 SWAP1 DUP2 PUSH2 0x96 SWAP2 SWAP1 PUSH2 0x2EC JUMP JUMPDEST POP PUSH2 0x3BE JUMP JUMPDEST PUSH1 0x0 DUP2 MLOAD SWAP1 POP SWAP2 SWAP1 POP JUMP JUMPDEST PUSH32 0x4E487B7100000000000000000000000000000000000000000000000000000000 PUSH1 0x0 MSTORE PUSH1 0x41 PUSH1 0x4 MSTORE PUSH1 0x24 PUSH1 0x0 REVERT JUMPDEST PUSH32 0x4E487B7100000000000000000000000000000000000000000000000000000000 PUSH1 0x0 MSTORE PUSH1 0x22 PUSH1 0x4 MSTORE PUSH1 0x24 PUSH1 0x0 REVERT JUMPDEST PUSH1 0x0 PUSH1 0x2 DUP3 DIV SWAP1 POP PUSH1 0x1 DUP3 AND DUP1 PUSH2 0x11D JUMPI PUSH1 0x7F DUP3 AND SWAP2 POP JUMPDEST PUSH1 0x20 DUP3 LT DUP2 SUB PUSH2 0x130 JUMPI PUSH2 0x12F PUSH2 0xD6 JUMP JUMPDEST JUMPDEST POP SWAP2 SWAP1 POP JUMP JUMPDEST PUSH1 0x0 DUP2 SWAP1 POP DUP2 PUSH1 0x0 MSTORE PUSH1 0x20 PUSH1 0x0 KECCAK256 SWAP1 POP SWAP2 SWAP1 POP JUMP JUMPDEST PUSH1 0x0 PUSH1 0x20 PUSH1 0x1F DUP4 ADD DIV SWAP1 POP SWAP2 SWAP1 POP JUMP JUMPDEST PUSH1 0x0 DUP3 DUP3 SHL SWAP1 POP SWAP3 SWAP2 POP POP JUMP JUMPDEST PUSH1 0x0 PUSH1 0x8 DUP4 MUL PUSH2 0x198 PUSH32 0xFFFFFFFFFFFFFFFFFFFFFFFFFFFFFFFFFFFFFFFFFFFFFFFFFFFFFFFFFFFFFFFF DUP3 PUSH2 0x15B JUMP JUMPDEST PUSH2 0x1A2 DUP7 DUP4 PUSH2 0x15B JUMP JUMPDEST SWAP6 POP DUP1 NOT DUP5 AND SWAP4 POP DUP1 DUP7 AND DUP5 OR SWAP3 POP POP POP SWAP4 SWAP3 POP POP POP JUMP JUMPDEST PUSH1 0x0 DUP2 SWAP1 POP SWAP2 SWAP1 POP JUMP JUMPDEST PUSH1 0x0 DUP2 SWAP1 POP SWAP2 SWAP1 POP JUMP JUMPDEST PUSH1 0x0 PUSH2 0x1E9 PUSH2 0x1E4 PUSH2 0x1DF DUP5 PUSH2 0x1BA JUMP JUMPDEST PUSH2 0x1C4 JUMP JUMPDEST PUSH2 0x1BA JUMP JUMPDEST SWAP1 POP SWAP2 SWAP1 POP JUMP JUMPDEST PUSH1 0x0 DUP2 SWAP1 POP SWAP2 SWAP1 POP JUMP JUMPDEST PUSH2 0x203 DUP4 PUSH2 0x1CE JUMP JUMPDEST PUSH2 0x217 PUSH2 0x20F DUP3 PUSH2 0x1F0 JUMP JUMPDEST DUP5 DUP5 SLOAD PUSH2 0x168 JUMP JUMPDEST DUP3 SSTORE POP POP POP POP JUMP JUMPDEST PUSH1 0x0 SWAP1 JUMP JUMPDEST PUSH2 0x22C PUSH2 0x21F JUMP JUMPDEST PUSH2 0x237 DUP2 DUP5 DUP5 PUSH2 0x1FA JUMP JUMPDEST POP POP POP JUMP JUMPDEST JUMPDEST DUP2 DUP2 LT ISZERO PUSH2 0x25B JUMPI PUSH2 0x250 PUSH1 0x0 DUP3 PUSH2 0x224 JUMP JUMPDEST PUSH1 0x1 DUP2 ADD SWAP1 POP PUSH2 0x23D JUMP JUMPDEST POP POP JUMP JUMPDEST PUSH1 0x1F DUP3 GT ISZERO PUSH2 0x2A0 JUMPI PUSH2 0x271 DUP2 PUSH2 0x136 JUMP JUMPDEST PUSH2 0x27A DUP5 PUSH2 0x14B JUMP JUMPDEST DUP2 ADD PUSH1 0x20 DUP6 LT ISZERO PUSH2 0x289 JUMPI DUP2 SWAP1 POP JUMPDEST PUSH2 0x29D PUSH2 0x295 DUP6 PUSH2 0x14B JUMP JUMPDEST DUP4 ADD DUP3 PUSH2 0x23C JUMP JUMPDEST POP POP JUMPDEST POP POP POP JUMP JUMPDEST PUSH1 0x0 DUP3 DUP3 SHR SWAP1 POP SWAP3 SWAP2 POP POP JUMP JUMPDEST PUSH1 0x0 PUSH2 0x2C3 PUSH1 0x0 NOT DUP5 PUSH1 0x8 MUL PUSH2 0x2A5 JUMP JUMPDEST NOT DUP1 DUP4 AND SWAP2 POP POP SWAP3 SWAP2 POP POP JUMP JUMPDEST PUSH1 0x0 PUSH2 0x2DC DUP4 DUP4 PUSH2 0x2B2 JUMP JUMPDEST SWAP2 POP DUP3 PUSH1 0x2 MUL DUP3 OR SWAP1 POP SWAP3 SWAP2 POP POP JUMP JUMPDEST PUSH2 0x2F5 DUP3 PUSH2 0x9C JUMP JUMPDEST PUSH8 0xFFFFFFFFFFFFFFFF DUP2 GT ISZERO PUSH2 0x30E JUMPI PUSH2 0x30D PUSH2 0xA7 JUMP JUMPDEST JUMPDEST PUSH2 0x318 DUP3 SLOAD PUSH2 0x105 JUMP JUMPDEST PUSH2 0x323 DUP3 DUP3 DUP6 PUSH2 0x25F JUMP JUMPDEST PUSH1 0x0 PUSH1 0x20 SWAP1 POP PUSH1 0x1F DUP4 GT PUSH1 0x1 DUP2 EQ PUSH2 0x356 JUMPI PUSH1 0x0 DUP5 ISZERO PUSH2 0x344 JUMPI DUP3 DUP8 ADD MLOAD SWAP1 POP JUMPDEST PUSH2 0x34E DUP6 DUP3 PUSH2 0x2D0 JUMP JUMPDEST DUP7 SSTORE POP PUSH2 0x3B6 JUMP JUMPDEST PUSH1 0x1F NOT DUP5 AND PUSH2 0x364 DUP7 PUSH2 0x136 JUMP JUMPDEST PUSH1 0x0 JUMPDEST DUP3 DUP2 LT ISZERO PUSH2 0x38C JUMPI DUP5 DUP10 ADD MLOAD DUP3 SSTORE PUSH1 0x1 DUP3 ADD SWAP2 POP PUSH1 0x20 DUP6 ADD SWAP5 POP PUSH1 0x20 DUP2 ADD SWAP1 POP PUSH2 0x367 JUMP JUMPDEST DUP7 DUP4 LT ISZERO PUSH2 0x3A9 JUMPI DUP5 DUP10 ADD MLOAD PUSH2 0x3A5 PUSH1 0x1F DUP10 AND DUP3 PUSH2 0x2B2 JUMP JUMPDEST DUP4 SSTORE POP JUMPDEST PUSH1 0x1 PUSH1 0x2 DUP9 MUL ADD DUP9 SSTORE POP POP POP JUMPDEST POP POP POP POP POP POP JUMP JUMPDEST PUSH2 0x2BCD DUP1 PUSH2 0x3CD PUSH1 0x0 CODECOPY PUSH1 0x0 RETURN INVALID PUSH1 0x80 PUSH1 0x40 MSTORE PUSH1 0x4 CALLDATASIZE LT PUSH2 0xA0 JUMPI PUSH1 0x0 CALLDATALOAD PUSH1 0xE0 SHR DUP1 PUSH4 0xA21A269D GT PUSH2 0x64 JUMPI DUP1 PUSH4 0xA21A269D EQ PUSH2 0x1A5 JUMPI DUP1 PUSH4 0xC44F5DA3 EQ PUSH2 0x1D0 JUMPI DUP1 PUSH4 0xDC47BFCD EQ PUSH2 0x20D JUMPI DUP1 PUSH4 0xDDCA3F43 EQ PUSH2 0x24A JUMPI DUP1 PUSH4 0xE27AF26F EQ PUSH2 0x275 JUMPI DUP1 PUSH4 0xE7D7ECB8 EQ PUSH2 0x2A5 JUMPI PUSH2 0xA7 JUMP JUMPDEST DUP1 PUSH4 0x396436B0 EQ PUSH2 0xAC JUMPI DUP1 PUSH4 0x57EA89B6 EQ PUSH2 0xE9 JUMPI DUP1 PUSH4 0x5E28C086 EQ PUSH2 0x100 JUMPI DUP1 PUSH4 0x685C13AD EQ PUSH2 0x13D JUMPI DUP1 PUSH4 0x8DA5CB5B EQ PUSH2 0x17A JUMPI PUSH2 0xA7 JUMP JUMPDEST CALLDATASIZE PUSH2 0xA7 JUMPI STOP JUMPDEST PUSH1 0x0 DUP1 REVERT JUMPDEST CALLVALUE DUP1 ISZERO PUSH2 0xB8 JUMPI PUSH1 0x0 DUP1 REVERT JUMPDEST POP PUSH2 0xD3 PUSH1 0x4 DUP1 CALLDATASIZE SUB DUP2 ADD SWAP1 PUSH2 0xCE SWAP2 SWAP1 PUSH2 0x1B21 JUMP JUMPDEST PUSH2 0x2E2 JUMP JUMPDEST PUSH1 0x40 MLOAD PUSH2 0xE0 SWAP2 SWAP1 PUSH2 0x1CA0 JUMP JUMPDEST PUSH1 0x40 MLOAD DUP1 SWAP2 SUB SWAP1 RETURN JUMPDEST CALLVALUE DUP1 ISZERO PUSH2 0xF5 JUMPI PUSH1 0x0 DUP1 REVERT JUMPDEST POP PUSH2 0xFE PUSH2 0x3D1 JUMP JUMPDEST STOP JUMPDEST CALLVALUE DUP1 ISZERO PUSH2 0x10C JUMPI PUSH1 0x0 DUP1 REVERT JUMPDEST POP PUSH2 0x127 PUSH1 0x4 DUP1 CALLDATASIZE SUB DUP2 ADD SWAP1 PUSH2 0x122 SWAP2 SWAP1 PUSH2 0x1E55 JUMP JUMPDEST PUSH2 0x57B JUMP JUMPDEST PUSH1 0x40 MLOAD PUSH2 0x134 SWAP2 SWAP1 PUSH2 0x1EDF JUMP JUMPDEST PUSH1 0x40 MLOAD DUP1 SWAP2 SUB SWAP1 RETURN JUMPDEST CALLVALUE DUP1 ISZERO PUSH2 0x149 JUMPI PUSH1 0x0 DUP1 REVERT JUMPDEST POP PUSH2 0x164 PUSH1 0x4 DUP1 CALLDATASIZE SUB DUP2 ADD SWAP1 PUSH2 0x15F SWAP2 SWAP1 PUSH2 0x1EFA JUMP JUMPDEST PUSH2 0x6B1 JUMP JUMPDEST PUSH1 0x40 MLOAD PUSH2 0x171 SWAP2 SWAP1 PUSH2 0x1EDF JUMP JUMPDEST PUSH1 0x40 MLOAD DUP1 SWAP2 SUB SWAP1 RETURN JUMPDEST CALLVALUE DUP1 ISZERO PUSH2 0x186 JUMPI PUSH1 0x0 DUP1 REVERT JUMPDEST POP PUSH2 0x18F PUSH2 0x998 JUMP JUMPDEST PUSH1 0x40 MLOAD PUSH2 0x19C SWAP2 SWAP1 PUSH2 0x1F49 JUMP JUMPDEST PUSH1 0x40 MLOAD DUP1 SWAP2 SUB SWAP1 RETURN JUMPDEST CALLVALUE DUP1 ISZERO PUSH2 0x1B1 JUMPI PUSH1 0x0 DUP1 REVERT JUMPDEST POP PUSH2 0x1BA PUSH2 0x9BE JUMP JUMPDEST PUSH1 0x40 MLOAD PUSH2 0x1C7 SWAP2 SWAP1 PUSH2 0x1F73 JUMP JUMPDEST PUSH1 0x40 MLOAD DUP1 SWAP2 SUB SWAP1 RETURN JUMPDEST CALLVALUE DUP1 ISZERO PUSH2 0x1DC JUMPI PUSH1 0x0 DUP1 REVERT JUMPDEST POP PUSH2 0x1F7 PUSH1 0x4 DUP1 CALLDATASIZE SUB DUP2 ADD SWAP1 PUSH2 0x1F2 SWAP2 SWAP1 PUSH2 0x1F8E JUMP JUMPDEST PUSH2 0x9C8 JUMP JUMPDEST PUSH1 0x40 MLOAD PUSH2 0x204 SWAP2 SWAP1 PUSH2 0x1F73 JUMP JUMPDEST PUSH1 0x40 MLOAD DUP1 SWAP2 SUB SWAP1 RETURN JUMPDEST CALLVALUE DUP1 ISZERO PUSH2 0x219 JUMPI PUSH1 0x0 DUP1 REVERT JUMPDEST POP PUSH2 0x234 PUSH1 0x4 DUP1 CALLDATASIZE SUB DUP2 ADD SWAP1 PUSH2 0x22F SWAP2 SWAP1 PUSH2 0x1FEA JUMP JUMPDEST PUSH2 0x128A JUMP JUMPDEST PUSH1 0x40 MLOAD PUSH2 0x241 SWAP2 SWAP1 PUSH2 0x1EDF JUMP JUMPDEST PUSH1 0x40 MLOAD DUP1 SWAP2 SUB SWAP1 RETURN JUMPDEST CALLVALUE DUP1 ISZERO PUSH2 0x256 JUMPI PUSH1 0x0 DUP1 REVERT JUMPDEST POP PUSH2 0x25F PUSH2 0x133C JUMP JUMPDEST PUSH1 0x40 MLOAD PUSH2 0x26C SWAP2 SWAP1 PUSH2 0x20BE JUMP JUMPDEST PUSH1 0x40 MLOAD DUP1 SWAP2 SUB SWAP1 RETURN JUMPDEST PUSH2 0x28F PUSH1 0x4 DUP1 CALLDATASIZE SUB DUP2 ADD SWAP1 PUSH2 0x28A SWAP2 SWAP1 PUSH2 0x1B21 JUMP JUMPDEST PUSH2 0x1346 JUMP JUMPDEST PUSH1 0x40 MLOAD PUSH2 0x29C SWAP2 SWAP1 PUSH2 0x2223 JUMP JUMPDEST PUSH1 0x40 MLOAD DUP1 SWAP2 SUB SWAP1 RETURN JUMPDEST CALLVALUE DUP1 ISZERO PUSH2 0x2B1 JUMPI PUSH1 0x0 DUP1 REVERT JUMPDEST POP PUSH2 0x2CC PUSH1 0x4 DUP1 CALLDATASIZE SUB DUP2 ADD SWAP1 PUSH2 0x2C7 SWAP2 SWAP1 PUSH2 0x2245 JUMP JUMPDEST PUSH2 0x1692 JUMP JUMPDEST PUSH1 0x40 MLOAD PUSH2 0x2D9 SWAP2 SWAP1 PUSH2 0x22BC JUMP JUMPDEST PUSH1 0x40 MLOAD DUP1 SWAP2 SUB SWAP1 RETURN JUMPDEST PUSH1 0x60 PUSH1 0x4 PUSH1 0x0 DUP4 DUP2 MSTORE PUSH1 0x20 ADD SWAP1 DUP2 MSTORE PUSH1 0x20 ADD PUSH1 0x0 KECCAK256 PUSH1 0x4 ADD DUP1 SLOAD DUP1 PUSH1 0x20 MUL PUSH1 0x20 ADD PUSH1 0x40 MLOAD SWAP1 DUP2 ADD PUSH1 0x40 MSTORE DUP1 SWAP3 SWAP2 SWAP1 DUP2 DUP2 MSTORE PUSH1 0x20 ADD PUSH1 0x0 SWAP1 JUMPDEST DUP3 DUP3 LT ISZERO PUSH2 0x3C6 JUMPI DUP4 DUP3 SWAP1 PUSH1 0x0 MSTORE PUSH1 0x20 PUSH1 0x0 KECCAK256 ADD DUP1 SLOAD PUSH2 0x339 SWAP1 PUSH2 0x230D JUMP JUMPDEST DUP1 PUSH1 0x1F ADD PUSH1 0x20 DUP1 SWAP2 DIV MUL PUSH1 0x20 ADD PUSH1 0x40 MLOAD SWAP1 DUP2 ADD PUSH1 0x40 MSTORE DUP1 SWAP3 SWAP2 SWAP1 DUP2 DUP2 MSTORE PUSH1 0x20 ADD DUP3 DUP1 SLOAD PUSH2 0x365 SWAP1 PUSH2 0x230D JUMP JUMPDEST DUP1 ISZERO PUSH2 0x3B2 JUMPI DUP1 PUSH1 0x1F LT PUSH2 0x387 JUMPI PUSH2 0x100 DUP1 DUP4 SLOAD DIV MUL DUP4 MSTORE SWAP2 PUSH1 0x20 ADD SWAP2 PUSH2 0x3B2 JUMP JUMPDEST DUP3 ADD SWAP2 SWAP1 PUSH1 0x0 MSTORE PUSH1 0x20 PUSH1 0x0 KECCAK256 SWAP1 JUMPDEST DUP2 SLOAD DUP2 MSTORE SWAP1 PUSH1 0x1 ADD SWAP1 PUSH1 0x20 ADD DUP1 DUP4 GT PUSH2 0x395 JUMPI DUP3 SWAP1 SUB PUSH1 0x1F AND DUP3 ADD SWAP2 JUMPDEST POP POP POP POP POP DUP2 MSTORE PUSH1 0x20 ADD SWAP1 PUSH1 0x1 ADD SWAP1 PUSH2 0x31A JUMP JUMPDEST POP POP POP POP SWAP1 POP SWAP2 SWAP1 POP JUMP JUMPDEST PUSH1 0x2 PUSH1 0x0 SWAP1 SLOAD SWAP1 PUSH2 0x100 EXP SWAP1 DIV PUSH20 0xFFFFFFFFFFFFFFFFFFFFFFFFFFFFFFFFFFFFFFFF AND PUSH20 0xFFFFFFFFFFFFFFFFFFFFFFFFFFFFFFFFFFFFFFFF AND CALLER PUSH20 0xFFFFFFFFFFFFFFFFFFFFFFFFFFFFFFFFFFFFFFFF AND EQ PUSH2 0x461 JUMPI PUSH1 0x40 MLOAD PUSH32 0x8C379A000000000000000000000000000000000000000000000000000000000 DUP2 MSTORE PUSH1 0x4 ADD PUSH2 0x458 SWAP1 PUSH2 0x23B0 JUMP JUMPDEST PUSH1 0x40 MLOAD DUP1 SWAP2 SUB SWAP1 REVERT JUMPDEST PUSH1 0x0 SELFBALANCE SWAP1 POP PUSH1 0x0 DUP2 GT PUSH2 0x4A9 JUMPI PUSH1 0x40 MLOAD PUSH32 0x8C379A000000000000000000000000000000000000000000000000000000000 DUP2 MSTORE PUSH1 0x4 ADD PUSH2 0x4A0 SWAP1 PUSH2 0x241C JUMP JUMPDEST PUSH1 0x40 MLOAD DUP1 SWAP2 SUB SWAP1 REVERT JUMPDEST PUSH1 0x0 PUSH1 0x2 PUSH1 0x0 SWAP1 SLOAD SWAP1 PUSH2 0x100 EXP SWAP1 DIV PUSH20 0xFFFFFFFFFFFFFFFFFFFFFFFFFFFFFFFFFFFFFFFF AND PUSH20 0xFFFFFFFFFFFFFFFFFFFFFFFFFFFFFFFFFFFFFFFF AND DUP3 PUSH1 0x40 MLOAD PUSH2 0x4F1 SWAP1 PUSH2 0x246D JUMP JUMPDEST PUSH1 0x0 PUSH1 0x40 MLOAD DUP1 DUP4 SUB DUP2 DUP6 DUP8 GAS CALL SWAP3 POP POP POP RETURNDATASIZE DUP1 PUSH1 0x0 DUP2 EQ PUSH2 0x52E JUMPI PUSH1 0x40 MLOAD SWAP2 POP PUSH1 0x1F NOT PUSH1 0x3F RETURNDATASIZE ADD AND DUP3 ADD PUSH1 0x40 MSTORE RETURNDATASIZE DUP3 MSTORE RETURNDATASIZE PUSH1 0x0 PUSH1 0x20 DUP5 ADD RETURNDATACOPY PUSH2 0x533 JUMP JUMPDEST PUSH1 0x60 SWAP2 POP JUMPDEST POP POP SWAP1 POP DUP1 PUSH2 0x577 JUMPI PUSH1 0x40 MLOAD PUSH32 0x8C379A000000000000000000000000000000000000000000000000000000000 DUP2 MSTORE PUSH1 0x4 ADD PUSH2 0x56E SWAP1 PUSH2 0x24CE JUMP JUMPDEST PUSH1 0x40 MLOAD DUP1 SWAP2 SUB SWAP1 REVERT JUMPDEST POP POP JUMP JUMPDEST PUSH1 0x0 PUSH1 0x4 PUSH1 0x0 DUP5 DUP2 MSTORE PUSH1 0x20 ADD SWAP1 DUP2 MSTORE PUSH1 0x20 ADD PUSH1 0x0 KECCAK256 PUSH1 0x3 ADD PUSH1 0x14 SWAP1 SLOAD SWAP1 PUSH2 0x100 EXP SWAP1 DIV PUSH1 0xFF AND ISZERO PUSH2 0x5AF JUMPI PUSH1 0x0 SWAP1 POP PUSH2 0x6AA JUMP JUMPDEST DUP4 PUSH1 0x4 PUSH1 0x0 DUP6 DUP2 MSTORE PUSH1 0x20 ADD SWAP1 DUP2 MSTORE PUSH1 0x20 ADD PUSH1 0x0 KECCAK256 PUSH1 0x3 ADD PUSH1 0x0 PUSH2 0x100 EXP DUP2 SLOAD DUP2 PUSH20 0xFFFFFFFFFFFFFFFFFFFFFFFFFFFFFFFFFFFFFFFF MUL NOT AND SWAP1 DUP4 PUSH20 0xFFFFFFFFFFFFFFFFFFFFFFFFFFFFFFFFFFFFFFFF AND MUL OR SWAP1 SSTORE POP PUSH1 0x1 PUSH1 0x4 PUSH1 0x0 DUP6 DUP2 MSTORE PUSH1 0x20 ADD SWAP1 DUP2 MSTORE PUSH1 0x20 ADD PUSH1 0x0 KECCAK256 PUSH1 0x3 ADD PUSH1 0x14 PUSH2 0x100 EXP DUP2 SLOAD DUP2 PUSH1 0xFF MUL NOT AND SWAP1 DUP4 ISZERO ISZERO MUL OR SWAP1 SSTORE POP PUSH1 0x4 PUSH1 0x0 DUP5 DUP2 MSTORE PUSH1 0x20 ADD SWAP1 DUP2 MSTORE PUSH1 0x20 ADD PUSH1 0x0 KECCAK256 PUSH1 0x4 ADD DUP3 PUSH2 0x653 TIMESTAMP PUSH2 0x1766 JUMP JUMPDEST PUSH1 0x40 MLOAD PUSH1 0x20 ADD PUSH2 0x664 SWAP3 SWAP2 SWAP1 PUSH2 0x2576 JUMP JUMPDEST PUSH1 0x40 MLOAD PUSH1 0x20 DUP2 DUP4 SUB SUB DUP2 MSTORE SWAP1 PUSH1 0x40 MSTORE SWAP1 DUP1 PUSH1 0x1 DUP2 SLOAD ADD DUP1 DUP3 SSTORE DUP1 SWAP2 POP POP PUSH1 0x1 SWAP1 SUB SWAP1 PUSH1 0x0 MSTORE PUSH1 0x20 PUSH1 0x0 KECCAK256 ADD PUSH1 0x0 SWAP1 SWAP2 SWAP1 SWAP2 SWAP1 SWAP2 POP SWAP1 DUP2 PUSH2 0x6A4 SWAP2 SWAP1 PUSH2 0x2764 JUMP JUMPDEST POP PUSH1 0x1 SWAP1 POP JUMPDEST SWAP4 SWAP3 POP POP POP JUMP JUMPDEST PUSH1 0x0 PUSH1 0x4 PUSH1 0x0 DUP4 DUP2 MSTORE PUSH1 0x20 ADD SWAP1 DUP2 MSTORE PUSH1 0x20 ADD PUSH1 0x0 KECCAK256 PUSH1 0x3 ADD PUSH1 0x14 SWAP1 SLOAD SWAP1 PUSH2 0x100 EXP SWAP1 DIV PUSH1 0xFF AND DUP1 PUSH2 0x7F1 JUMPI POP PUSH2 0x7EF PUSH1 0x40 MLOAD DUP1 PUSH1 0x40 ADD PUSH1 0x40 MSTORE DUP1 PUSH1 0x9 DUP2 MSTORE PUSH1 0x20 ADD PUSH32 0x4D6964646C656D616E0000000000000000000000000000000000000000000000 DUP2 MSTORE POP PUSH1 0x3 PUSH1 0x0 DUP7 PUSH20 0xFFFFFFFFFFFFFFFFFFFFFFFFFFFFFFFFFFFFFFFF AND PUSH20 0xFFFFFFFFFFFFFFFFFFFFFFFFFFFFFFFFFFFFFFFF AND DUP2 MSTORE PUSH1 0x20 ADD SWAP1 DUP2 MSTORE PUSH1 0x20 ADD PUSH1 0x0 KECCAK256 PUSH1 0x0 ADD DUP1 SLOAD PUSH2 0x763 SWAP1 PUSH2 0x230D JUMP JUMPDEST DUP1 PUSH1 0x1F ADD PUSH1 0x20 DUP1 SWAP2 DIV MUL PUSH1 0x20 ADD PUSH1 0x40 MLOAD SWAP1 DUP2 ADD PUSH1 0x40 MSTORE DUP1 SWAP3 SWAP2 SWAP1 DUP2 DUP2 MSTORE PUSH1 0x20 ADD DUP3 DUP1 SLOAD PUSH2 0x78F SWAP1 PUSH2 0x230D JUMP JUMPDEST DUP1 ISZERO PUSH2 0x7DC JUMPI DUP1 PUSH1 0x1F LT PUSH2 0x7B1 JUMPI PUSH2 0x100 DUP1 DUP4 SLOAD DIV MUL DUP4 MSTORE SWAP2 PUSH1 0x20 ADD SWAP2 PUSH2 0x7DC JUMP JUMPDEST DUP3 ADD SWAP2 SWAP1 PUSH1 0x0 MSTORE PUSH1 0x20 PUSH1 0x0 KECCAK256 SWAP1 JUMPDEST DUP2 SLOAD DUP2 MSTORE SWAP1 PUSH1 0x1 ADD SWAP1 PUSH1 0x20 ADD DUP1 DUP4 GT PUSH2 0x7BF JUMPI DUP3 SWAP1 SUB PUSH1 0x1F AND DUP3 ADD SWAP2 JUMPDEST POP POP POP POP POP PUSH2 0x1834 SWAP1 SWAP2 SWAP1 PUSH4 0xFFFFFFFF AND JUMP JUMPDEST ISZERO JUMPDEST ISZERO PUSH2 0x7FF JUMPI PUSH1 0x0 SWAP1 POP PUSH2 0x992 JUMP JUMPDEST DUP3 PUSH1 0x4 PUSH1 0x0 DUP5 DUP2 MSTORE PUSH1 0x20 ADD SWAP1 DUP2 MSTORE PUSH1 0x20 ADD PUSH1 0x0 KECCAK256 PUSH1 0x3 ADD PUSH1 0x0 PUSH2 0x100 EXP DUP2 SLOAD DUP2 PUSH20 0xFFFFFFFFFFFFFFFFFFFFFFFFFFFFFFFFFFFFFFFF MUL NOT AND SWAP1 DUP4 PUSH20 0xFFFFFFFFFFFFFFFFFFFFFFFFFFFFFFFFFFFFFFFF AND MUL OR SWAP1 SSTORE POP PUSH1 0x4 PUSH1 0x0 DUP4 DUP2 MSTORE PUSH1 0x20 ADD SWAP1 DUP2 MSTORE PUSH1 0x20 ADD PUSH1 0x0 KECCAK256 PUSH1 0x4 ADD PUSH1 0x3 PUSH1 0x0 DUP6 PUSH20 0xFFFFFFFFFFFFFFFFFFFFFFFFFFFFFFFFFFFFFFFF AND PUSH20 0xFFFFFFFFFFFFFFFFFFFFFFFFFFFFFFFFFFFFFFFF AND DUP2 MSTORE PUSH1 0x20 ADD SWAP1 DUP2 MSTORE PUSH1 0x20 ADD PUSH1 0x0 KECCAK256 PUSH1 0x0 ADD PUSH1 0x3 PUSH1 0x0 DUP7 PUSH20 0xFFFFFFFFFFFFFFFFFFFFFFFFFFFFFFFFFFFFFFFF AND PUSH20 0xFFFFFFFFFFFFFFFFFFFFFFFFFFFFFFFFFFFFFFFF AND DUP2 MSTORE PUSH1 0x20 ADD SWAP1 DUP2 MSTORE PUSH1 0x20 ADD PUSH1 0x0 KECCAK256 PUSH1 0x1 ADD PUSH1 0x3 PUSH1 0x0 DUP8 PUSH20 0xFFFFFFFFFFFFFFFFFFFFFFFFFFFFFFFFFFFFFFFF AND PUSH20 0xFFFFFFFFFFFFFFFFFFFFFFFFFFFFFFFFFFFFFFFF AND DUP2 MSTORE PUSH1 0x20 ADD SWAP1 DUP2 MSTORE PUSH1 0x20 ADD PUSH1 0x0 KECCAK256 PUSH1 0x2 ADD PUSH2 0x939 TIMESTAMP PUSH2 0x1766 JUMP JUMPDEST PUSH1 0x40 MLOAD PUSH1 0x20 ADD PUSH2 0x94C SWAP5 SWAP4 SWAP3 SWAP2 SWAP1 PUSH2 0x28B9 JUMP JUMPDEST PUSH1 0x40 MLOAD PUSH1 0x20 DUP2 DUP4 SUB SUB DUP2 MSTORE SWAP1 PUSH1 0x40 MSTORE SWAP1 DUP1 PUSH1 0x1 DUP2 SLOAD ADD DUP1 DUP3 SSTORE DUP1 SWAP2 POP POP PUSH1 0x1 SWAP1 SUB SWAP1 PUSH1 0x0 MSTORE PUSH1 0x20 PUSH1 0x0 KECCAK256 ADD PUSH1 0x0 SWAP1 SWAP2 SWAP1 SWAP2 SWAP1 SWAP2 POP SWAP1 DUP2 PUSH2 0x98C SWAP2 SWAP1 PUSH2 0x2764 JUMP JUMPDEST POP PUSH1 0x1 SWAP1 POP JUMPDEST SWAP3 SWAP2 POP POP JUMP JUMPDEST PUSH1 0x2 PUSH1 0x0 SWAP1 SLOAD SWAP1 PUSH2 0x100 EXP SWAP1 DIV PUSH20 0xFFFFFFFFFFFFFFFFFFFFFFFFFFFFFFFFFFFFFFFF AND DUP2 JUMP JUMPDEST PUSH1 0x0 PUSH1 0x1 SLOAD SWAP1 POP SWAP1 JUMP JUMPDEST PUSH1 0x0 PUSH2 0xADC PUSH1 0x40 MLOAD DUP1 PUSH1 0x40 ADD PUSH1 0x40 MSTORE DUP1 PUSH1 0xC DUP2 MSTORE PUSH1 0x20 ADD PUSH32 0x4D616E7566616374757265720000000000000000000000000000000000000000 DUP2 MSTORE POP PUSH1 0x3 PUSH1 0x0 DUP7 PUSH20 0xFFFFFFFFFFFFFFFFFFFFFFFFFFFFFFFFFFFFFFFF AND PUSH20 0xFFFFFFFFFFFFFFFFFFFFFFFFFFFFFFFFFFFFFFFF AND DUP2 MSTORE PUSH1 0x20 ADD SWAP1 DUP2 MSTORE PUSH1 0x20 ADD PUSH1 0x0 KECCAK256 PUSH1 0x0 ADD DUP1 SLOAD PUSH2 0xA50 SWAP1 PUSH2 0x230D JUMP JUMPDEST DUP1 PUSH1 0x1F ADD PUSH1 0x20 DUP1 SWAP2 DIV MUL PUSH1 0x20 ADD PUSH1 0x40 MLOAD SWAP1 DUP2 ADD PUSH1 0x40 MSTORE DUP1 SWAP3 SWAP2 SWAP1 DUP2 DUP2 MSTORE PUSH1 0x20 ADD DUP3 DUP1 SLOAD PUSH2 0xA7C SWAP1 PUSH2 0x230D JUMP JUMPDEST DUP1 ISZERO PUSH2 0xAC9 JUMPI DUP1 PUSH1 0x1F LT PUSH2 0xA9E JUMPI PUSH2 0x100 DUP1 DUP4 SLOAD DIV MUL DUP4 MSTORE SWAP2 PUSH1 0x20 ADD SWAP2 PUSH2 0xAC9 JUMP JUMPDEST DUP3 ADD SWAP2 SWAP1 PUSH1 0x0 MSTORE PUSH1 0x20 PUSH1 0x0 KECCAK256 SWAP1 JUMPDEST DUP2 SLOAD DUP2 MSTORE SWAP1 PUSH1 0x1 ADD SWAP1 PUSH1 0x20 ADD DUP1 DUP4 GT PUSH2 0xAAC JUMPI DUP3 SWAP1 SUB PUSH1 0x1F AND DUP3 ADD SWAP2 JUMPDEST POP POP POP POP POP PUSH2 0x1834 SWAP1 SWAP2 SWAP1 PUSH4 0xFFFFFFFF AND JUMP JUMPDEST PUSH2 0xAEB JUMPI PUSH1 0x0 DUP1 SHL SWAP1 POP PUSH2 0x1284 JUMP JUMPDEST PUSH1 0x0 PUSH1 0x1 PUSH8 0xFFFFFFFFFFFFFFFF DUP2 GT ISZERO PUSH2 0xB08 JUMPI PUSH2 0xB07 PUSH2 0x1D2A JUMP JUMPDEST JUMPDEST PUSH1 0x40 MLOAD SWAP1 DUP1 DUP3 MSTORE DUP1 PUSH1 0x20 MUL PUSH1 0x20 ADD DUP3 ADD PUSH1 0x40 MSTORE DUP1 ISZERO PUSH2 0xB3B JUMPI DUP2 PUSH1 0x20 ADD JUMPDEST PUSH1 0x60 DUP2 MSTORE PUSH1 0x20 ADD SWAP1 PUSH1 0x1 SWAP1 SUB SWAP1 DUP2 PUSH2 0xB26 JUMPI SWAP1 POP JUMPDEST POP SWAP1 POP PUSH1 0x3 PUSH1 0x0 DUP6 PUSH20 0xFFFFFFFFFFFFFFFFFFFFFFFFFFFFFFFFFFFFFFFF AND PUSH20 0xFFFFFFFFFFFFFFFFFFFFFFFFFFFFFFFFFFFFFFFF AND DUP2 MSTORE PUSH1 0x20 ADD SWAP1 DUP2 MSTORE PUSH1 0x20 ADD PUSH1 0x0 KECCAK256 PUSH1 0x0 ADD PUSH1 0x3 PUSH1 0x0 DUP7 PUSH20 0xFFFFFFFFFFFFFFFFFFFFFFFFFFFFFFFFFFFFFFFF AND PUSH20 0xFFFFFFFFFFFFFFFFFFFFFFFFFFFFFFFFFFFFFFFF AND DUP2 MSTORE PUSH1 0x20 ADD SWAP1 DUP2 MSTORE PUSH1 0x20 ADD PUSH1 0x0 KECCAK256 PUSH1 0x1 ADD PUSH1 0x3 PUSH1 0x0 DUP8 PUSH20 0xFFFFFFFFFFFFFFFFFFFFFFFFFFFFFFFFFFFFFFFF AND PUSH20 0xFFFFFFFFFFFFFFFFFFFFFFFFFFFFFFFFFFFFFFFF AND DUP2 MSTORE PUSH1 0x20 ADD SWAP1 DUP2 MSTORE PUSH1 0x20 ADD PUSH1 0x0 KECCAK256 PUSH1 0x2 ADD PUSH2 0xC0D TIMESTAMP PUSH2 0x1766 JUMP JUMPDEST PUSH1 0x40 MLOAD PUSH1 0x20 ADD PUSH2 0xC20 SWAP5 SWAP4 SWAP3 SWAP2 SWAP1 PUSH2 0x28B9 JUMP JUMPDEST PUSH1 0x40 MLOAD PUSH1 0x20 DUP2 DUP4 SUB SUB DUP2 MSTORE SWAP1 PUSH1 0x40 MSTORE DUP2 PUSH1 0x0 DUP2 MLOAD DUP2 LT PUSH2 0xC43 JUMPI PUSH2 0xC42 PUSH2 0x2924 JUMP JUMPDEST JUMPDEST PUSH1 0x20 MUL PUSH1 0x20 ADD ADD DUP2 SWAP1 MSTORE POP PUSH1 0x0 PUSH1 0x40 MLOAD DUP1 PUSH1 0xC0 ADD PUSH1 0x40 MSTORE DUP1 PUSH1 0x3 PUSH1 0x0 DUP9 PUSH20 0xFFFFFFFFFFFFFFFFFFFFFFFFFFFFFFFFFFFFFFFF AND PUSH20 0xFFFFFFFFFFFFFFFFFFFFFFFFFFFFFFFFFFFFFFFF AND DUP2 MSTORE PUSH1 0x20 ADD SWAP1 DUP2 MSTORE PUSH1 0x20 ADD PUSH1 0x0 KECCAK256 PUSH1 0x1 ADD DUP1 SLOAD PUSH2 0xCA8 SWAP1 PUSH2 0x230D JUMP JUMPDEST DUP1 PUSH1 0x1F ADD PUSH1 0x20 DUP1 SWAP2 DIV MUL PUSH1 0x20 ADD PUSH1 0x40 MLOAD SWAP1 DUP2 ADD PUSH1 0x40 MSTORE DUP1 SWAP3 SWAP2 SWAP1 DUP2 DUP2 MSTORE PUSH1 0x20 ADD DUP3 DUP1 SLOAD PUSH2 0xCD4 SWAP1 PUSH2 0x230D JUMP JUMPDEST DUP1 ISZERO PUSH2 0xD21 JUMPI DUP1 PUSH1 0x1F LT PUSH2 0xCF6 JUMPI PUSH2 0x100 DUP1 DUP4 SLOAD DIV MUL DUP4 MSTORE SWAP2 PUSH1 0x20 ADD SWAP2 PUSH2 0xD21 JUMP JUMPDEST DUP3 ADD SWAP2 SWAP1 PUSH1 0x0 MSTORE PUSH1 0x20 PUSH1 0x0 KECCAK256 SWAP1 JUMPDEST DUP2 SLOAD DUP2 MSTORE SWAP1 PUSH1 0x1 ADD SWAP1 PUSH1 0x20 ADD DUP1 DUP4 GT PUSH2 0xD04 JUMPI DUP3 SWAP1 SUB PUSH1 0x1F AND DUP3 ADD SWAP2 JUMPDEST POP POP POP POP POP DUP2 MSTORE PUSH1 0x20 ADD DUP6 DUP2 MSTORE PUSH1 0x20 ADD TIMESTAMP DUP2 MSTORE PUSH1 0x20 ADD DUP7 PUSH20 0xFFFFFFFFFFFFFFFFFFFFFFFFFFFFFFFFFFFFFFFF AND DUP2 MSTORE PUSH1 0x20 ADD PUSH1 0x0 ISZERO ISZERO DUP2 MSTORE PUSH1 0x20 ADD DUP4 DUP2 MSTORE POP SWAP1 POP PUSH1 0x0 DUP2 PUSH1 0x20 ADD MLOAD DUP3 PUSH1 0x40 ADD MLOAD PUSH1 0x1 PUSH1 0x5 PUSH1 0x3 PUSH1 0x0 DUP12 PUSH20 0xFFFFFFFFFFFFFFFFFFFFFFFFFFFFFFFFFFFFFFFF AND PUSH20 0xFFFFFFFFFFFFFFFFFFFFFFFFFFFFFFFFFFFFFFFF AND DUP2 MSTORE PUSH1 0x20 ADD SWAP1 DUP2 MSTORE PUSH1 0x20 ADD PUSH1 0x0 KECCAK256 PUSH1 0x1 ADD PUSH1 0x40 MLOAD PUSH2 0xDC1 SWAP2 SWAP1 PUSH2 0x2953 JUMP JUMPDEST SWAP1 DUP2 MSTORE PUSH1 0x20 ADD PUSH1 0x40 MLOAD DUP1 SWAP2 SUB SWAP1 KECCAK256 DUP9 PUSH1 0x40 MLOAD PUSH2 0xDDD SWAP2 SWAP1 PUSH2 0x296A JUMP JUMPDEST SWAP1 DUP2 MSTORE PUSH1 0x20 ADD PUSH1 0x40 MLOAD DUP1 SWAP2 SUB SWAP1 KECCAK256 SLOAD PUSH2 0xDF6 SWAP2 SWAP1 PUSH2 0x29B0 JUMP JUMPDEST PUSH1 0x40 MLOAD PUSH1 0x20 ADD PUSH2 0xE08 SWAP4 SWAP3 SWAP2 SWAP1 PUSH2 0x2A05 JUMP JUMPDEST PUSH1 0x40 MLOAD PUSH1 0x20 DUP2 DUP4 SUB SUB DUP2 MSTORE SWAP1 PUSH1 0x40 MSTORE DUP1 MLOAD SWAP1 PUSH1 0x20 ADD KECCAK256 SWAP1 POP DUP2 PUSH1 0x4 PUSH1 0x0 DUP4 DUP2 MSTORE PUSH1 0x20 ADD SWAP1 DUP2 MSTORE PUSH1 0x20 ADD PUSH1 0x0 KECCAK256 PUSH1 0x0 DUP3 ADD MLOAD DUP2 PUSH1 0x0 ADD SWAP1 DUP2 PUSH2 0xE49 SWAP2 SWAP1 PUSH2 0x2764 JUMP JUMPDEST POP PUSH1 0x20 DUP3 ADD MLOAD DUP2 PUSH1 0x1 ADD SWAP1 DUP2 PUSH2 0xE5F SWAP2 SWAP1 PUSH2 0x2764 JUMP JUMPDEST POP PUSH1 0x40 DUP3 ADD MLOAD DUP2 PUSH1 0x2 ADD SSTORE PUSH1 0x60 DUP3 ADD MLOAD DUP2 PUSH1 0x3 ADD PUSH1 0x0 PUSH2 0x100 EXP DUP2 SLOAD DUP2 PUSH20 0xFFFFFFFFFFFFFFFFFFFFFFFFFFFFFFFFFFFFFFFF MUL NOT AND SWAP1 DUP4 PUSH20 0xFFFFFFFFFFFFFFFFFFFFFFFFFFFFFFFFFFFFFFFF AND MUL OR SWAP1 SSTORE POP PUSH1 0x80 DUP3 ADD MLOAD DUP2 PUSH1 0x3 ADD PUSH1 0x14 PUSH2 0x100 EXP DUP2 SLOAD DUP2 PUSH1 0xFF MUL NOT AND SWAP1 DUP4 ISZERO ISZERO MUL OR SWAP1 SSTORE POP PUSH1 0xA0 DUP3 ADD MLOAD DUP2 PUSH1 0x4 ADD SWAP1 DUP1 MLOAD SWAP1 PUSH1 0x20 ADD SWAP1 PUSH2 0xEED SWAP3 SWAP2 SWAP1 PUSH2 0x19AF JUMP JUMPDEST POP SWAP1 POP POP PUSH1 0x5 PUSH1 0x3 PUSH1 0x0 DUP9 PUSH20 0xFFFFFFFFFFFFFFFFFFFFFFFFFFFFFFFFFFFFFFFF AND PUSH20 0xFFFFFFFFFFFFFFFFFFFFFFFFFFFFFFFFFFFFFFFF AND DUP2 MSTORE PUSH1 0x20 ADD SWAP1 DUP2 MSTORE PUSH1 0x20 ADD PUSH1 0x0 KECCAK256 PUSH1 0x1 ADD PUSH1 0x40 MLOAD PUSH2 0xF42 SWAP2 SWAP1 PUSH2 0x2953 JUMP JUMPDEST SWAP1 DUP2 MSTORE PUSH1 0x20 ADD PUSH1 0x40 MLOAD DUP1 SWAP2 SUB SWAP1 KECCAK256 DUP6 PUSH1 0x40 MLOAD PUSH2 0xF5E SWAP2 SWAP1 PUSH2 0x296A JUMP JUMPDEST SWAP1 DUP2 MSTORE PUSH1 0x20 ADD PUSH1 0x40 MLOAD DUP1 SWAP2 SUB SWAP1 KECCAK256 PUSH1 0x0 DUP2 SLOAD DUP1 SWAP3 SWAP2 SWAP1 PUSH2 0xF7D SWAP1 PUSH2 0x2A3E JUMP JUMPDEST SWAP2 SWAP1 POP SSTORE POP DUP1 PUSH1 0x1 DUP2 SWAP1 SSTORE POP PUSH1 0x0 PUSH1 0x4 PUSH1 0x0 DUP4 DUP2 MSTORE PUSH1 0x20 ADD SWAP1 DUP2 MSTORE PUSH1 0x20 ADD PUSH1 0x0 KECCAK256 PUSH1 0x40 MLOAD DUP1 PUSH1 0xC0 ADD PUSH1 0x40 MSTORE SWAP1 DUP2 PUSH1 0x0 DUP3 ADD DUP1 SLOAD PUSH2 0xFB9 SWAP1 PUSH2 0x230D JUMP JUMPDEST DUP1 PUSH1 0x1F ADD PUSH1 0x20 DUP1 SWAP2 DIV MUL PUSH1 0x20 ADD PUSH1 0x40 MLOAD SWAP1 DUP2 ADD PUSH1 0x40 MSTORE DUP1 SWAP3 SWAP2 SWAP1 DUP2 DUP2 MSTORE PUSH1 0x20 ADD DUP3 DUP1 SLOAD PUSH2 0xFE5 SWAP1 PUSH2 0x230D JUMP JUMPDEST DUP1 ISZERO PUSH2 0x1032 JUMPI DUP1 PUSH1 0x1F LT PUSH2 0x1007 JUMPI PUSH2 0x100 DUP1 DUP4 SLOAD DIV MUL DUP4 MSTORE SWAP2 PUSH1 0x20 ADD SWAP2 PUSH2 0x1032 JUMP JUMPDEST DUP3 ADD SWAP2 SWAP1 PUSH1 0x0 MSTORE PUSH1 0x20 PUSH1 0x0 KECCAK256 SWAP1 JUMPDEST DUP2 SLOAD DUP2 MSTORE SWAP1 PUSH1 0x1 ADD SWAP1 PUSH1 0x20 ADD DUP1 DUP4 GT PUSH2 0x1015 JUMPI DUP3 SWAP1 SUB PUSH1 0x1F AND DUP3 ADD SWAP2 JUMPDEST POP POP POP POP POP DUP2 MSTORE PUSH1 0x20 ADD PUSH1 0x1 DUP3 ADD DUP1 SLOAD PUSH2 0x104B SWAP1 PUSH2 0x230D JUMP JUMPDEST DUP1 PUSH1 0x1F ADD PUSH1 0x20 DUP1 SWAP2 DIV MUL PUSH1 0x20 ADD PUSH1 0x40 MLOAD SWAP1 DUP2 ADD PUSH1 0x40 MSTORE DUP1 SWAP3 SWAP2 SWAP1 DUP2 DUP2 MSTORE PUSH1 0x20 ADD DUP3 DUP1 SLOAD PUSH2 0x1077 SWAP1 PUSH2 0x230D JUMP JUMPDEST DUP1 ISZERO PUSH2 0x10C4 JUMPI DUP1 PUSH1 0x1F LT PUSH2 0x1099 JUMPI PUSH2 0x100 DUP1 DUP4 SLOAD DIV MUL DUP4 MSTORE SWAP2 PUSH1 0x20 ADD SWAP2 PUSH2 0x10C4 JUMP JUMPDEST DUP3 ADD SWAP2 SWAP1 PUSH1 0x0 MSTORE PUSH1 0x20 PUSH1 0x0 KECCAK256 SWAP1 JUMPDEST DUP2 SLOAD DUP2 MSTORE SWAP1 PUSH1 0x1 ADD SWAP1 PUSH1 0x20 ADD DUP1 DUP4 GT PUSH2 0x10A7 JUMPI DUP3 SWAP1 SUB PUSH1 0x1F AND DUP3 ADD SWAP2 JUMPDEST POP POP POP POP POP DUP2 MSTORE PUSH1 0x20 ADD PUSH1 0x2 DUP3 ADD SLOAD DUP2 MSTORE PUSH1 0x20 ADD PUSH1 0x3 DUP3 ADD PUSH1 0x0 SWAP1 SLOAD SWAP1 PUSH2 0x100 EXP SWAP1 DIV PUSH20 0xFFFFFFFFFFFFFFFFFFFFFFFFFFFFFFFFFFFFFFFF AND PUSH20 0xFFFFFFFFFFFFFFFFFFFFFFFFFFFFFFFFFFFFFFFF AND PUSH20 0xFFFFFFFFFFFFFFFFFFFFFFFFFFFFFFFFFFFFFFFF AND DUP2 MSTORE PUSH1 0x20 ADD PUSH1 0x3 DUP3 ADD PUSH1 0x14 SWAP1 SLOAD SWAP1 PUSH2 0x100 EXP SWAP1 DIV PUSH1 0xFF AND ISZERO ISZERO ISZERO ISZERO DUP2 MSTORE PUSH1 0x20 ADD PUSH1 0x4 DUP3 ADD DUP1 SLOAD DUP1 PUSH1 0x20 MUL PUSH1 0x20 ADD PUSH1 0x40 MLOAD SWAP1 DUP2 ADD PUSH1 0x40 MSTORE DUP1 SWAP3 SWAP2 SWAP1 DUP2 DUP2 MSTORE PUSH1 0x20 ADD PUSH1 0x0 SWAP1 JUMPDEST DUP3 DUP3 LT ISZERO PUSH2 0x1219 JUMPI DUP4 DUP3 SWAP1 PUSH1 0x0 MSTORE PUSH1 0x20 PUSH1 0x0 KECCAK256 ADD DUP1 SLOAD PUSH2 0x118C SWAP1 PUSH2 0x230D JUMP JUMPDEST DUP1 PUSH1 0x1F ADD PUSH1 0x20 DUP1 SWAP2 DIV MUL PUSH1 0x20 ADD PUSH1 0x40 MLOAD SWAP1 DUP2 ADD PUSH1 0x40 MSTORE DUP1 SWAP3 SWAP2 SWAP1 DUP2 DUP2 MSTORE PUSH1 0x20 ADD DUP3 DUP1 SLOAD PUSH2 0x11B8 SWAP1 PUSH2 0x230D JUMP JUMPDEST DUP1 ISZERO PUSH2 0x1205 JUMPI DUP1 PUSH1 0x1F LT PUSH2 0x11DA JUMPI PUSH2 0x100 DUP1 DUP4 SLOAD DIV MUL DUP4 MSTORE SWAP2 PUSH1 0x20 ADD SWAP2 PUSH2 0x1205 JUMP JUMPDEST DUP3 ADD SWAP2 SWAP1 PUSH1 0x0 MSTORE PUSH1 0x20 PUSH1 0x0 KECCAK256 SWAP1 JUMPDEST DUP2 SLOAD DUP2 MSTORE SWAP1 PUSH1 0x1 ADD SWAP1 PUSH1 0x20 ADD DUP1 DUP4 GT PUSH2 0x11E8 JUMPI DUP3 SWAP1 SUB PUSH1 0x1F AND DUP3 ADD SWAP2 JUMPDEST POP POP POP POP POP DUP2 MSTORE PUSH1 0x20 ADD SWAP1 PUSH1 0x1 ADD SWAP1 PUSH2 0x116D JUMP JUMPDEST POP POP POP POP DUP2 MSTORE POP POP SWAP1 POP PUSH32 0xBD4DB8F848AF3F94C726FC28BC2DECCEBA8E2D15E945C5B7011867E915BA5DF9 DUP2 PUSH1 0x0 ADD MLOAD DUP3 PUSH1 0x20 ADD MLOAD DUP4 PUSH1 0x40 ADD MLOAD DUP5 PUSH1 0x60 ADD MLOAD DUP6 PUSH1 0x80 ADD MLOAD DUP7 PUSH1 0xA0 ADD MLOAD PUSH1 0x40 MLOAD PUSH2 0x1274 SWAP7 SWAP6 SWAP5 SWAP4 SWAP3 SWAP2 SWAP1 PUSH2 0x2A86 JUMP JUMPDEST PUSH1 0x40 MLOAD DUP1 SWAP2 SUB SWAP1 LOG1 DUP2 SWAP5 POP POP POP POP POP JUMPDEST SWAP3 SWAP2 POP POP JUMP JUMPDEST PUSH1 0x0 DUP1 PUSH1 0x40 MLOAD DUP1 PUSH1 0x60 ADD PUSH1 0x40 MSTORE DUP1 DUP7 DUP2 MSTORE PUSH1 0x20 ADD DUP6 DUP2 MSTORE PUSH1 0x20 ADD DUP5 DUP2 MSTORE POP SWAP1 POP DUP1 PUSH1 0x3 PUSH1 0x0 DUP9 PUSH20 0xFFFFFFFFFFFFFFFFFFFFFFFFFFFFFFFFFFFFFFFF AND PUSH20 0xFFFFFFFFFFFFFFFFFFFFFFFFFFFFFFFFFFFFFFFF AND DUP2 MSTORE PUSH1 0x20 ADD SWAP1 DUP2 MSTORE PUSH1 0x20 ADD PUSH1 0x0 KECCAK256 PUSH1 0x0 DUP3 ADD MLOAD DUP2 PUSH1 0x0 ADD SWAP1 DUP2 PUSH2 0x12FF SWAP2 SWAP1 PUSH2 0x2764 JUMP JUMPDEST POP PUSH1 0x20 DUP3 ADD MLOAD DUP2 PUSH1 0x1 ADD SWAP1 DUP2 PUSH2 0x1315 SWAP2 SWAP1 PUSH2 0x2764 JUMP JUMPDEST POP PUSH1 0x40 DUP3 ADD MLOAD DUP2 PUSH1 0x2 ADD SWAP1 DUP2 PUSH2 0x132B SWAP2 SWAP1 PUSH2 0x2764 JUMP JUMPDEST POP SWAP1 POP POP PUSH1 0x1 SWAP2 POP POP SWAP5 SWAP4 POP POP POP POP JUMP JUMPDEST PUSH6 0x246139CA800 DUP2 JUMP JUMPDEST PUSH2 0x134E PUSH2 0x1A08 JUMP JUMPDEST PUSH6 0x246139CA800 CALLVALUE EQ PUSH2 0x1396 JUMPI PUSH1 0x40 MLOAD PUSH32 0x8C379A000000000000000000000000000000000000000000000000000000000 DUP2 MSTORE PUSH1 0x4 ADD PUSH2 0x138D SWAP1 PUSH2 0x2B48 JUMP JUMPDEST PUSH1 0x40 MLOAD DUP1 SWAP2 SUB SWAP1 REVERT JUMPDEST PUSH1 0x0 PUSH1 0x4 PUSH1 0x0 DUP5 DUP2 MSTORE PUSH1 0x20 ADD SWAP1 DUP2 MSTORE PUSH1 0x20 ADD PUSH1 0x0 KECCAK256 PUSH1 0x40 MLOAD DUP1 PUSH1 0xC0 ADD PUSH1 0x40 MSTORE SWAP1 DUP2 PUSH1 0x0 DUP3 ADD DUP1 SLOAD PUSH2 0x13C6 SWAP1 PUSH2 0x230D JUMP JUMPDEST DUP1 PUSH1 0x1F ADD PUSH1 0x20 DUP1 SWAP2 DIV MUL PUSH1 0x20 ADD PUSH1 0x40 MLOAD SWAP1 DUP2 ADD PUSH1 0x40 MSTORE DUP1 SWAP3 SWAP2 SWAP1 DUP2 DUP2 MSTORE PUSH1 0x20 ADD DUP3 DUP1 SLOAD PUSH2 0x13F2 SWAP1 PUSH2 0x230D JUMP JUMPDEST DUP1 ISZERO PUSH2 0x143F JUMPI DUP1 PUSH1 0x1F LT PUSH2 0x1414 JUMPI PUSH2 0x100 DUP1 DUP4 SLOAD DIV MUL DUP4 MSTORE SWAP2 PUSH1 0x20 ADD SWAP2 PUSH2 0x143F JUMP JUMPDEST DUP3 ADD SWAP2 SWAP1 PUSH1 0x0 MSTORE PUSH1 0x20 PUSH1 0x0 KECCAK256 SWAP1 JUMPDEST DUP2 SLOAD DUP2 MSTORE SWAP1 PUSH1 0x1 ADD SWAP1 PUSH1 0x20 ADD DUP1 DUP4 GT PUSH2 0x1422 JUMPI DUP3 SWAP1 SUB PUSH1 0x1F AND DUP3 ADD SWAP2 JUMPDEST POP POP POP POP POP DUP2 MSTORE PUSH1 0x20 ADD PUSH1 0x1 DUP3 ADD DUP1 SLOAD PUSH2 0x1458 SWAP1 PUSH2 0x230D JUMP JUMPDEST DUP1 PUSH1 0x1F ADD PUSH1 0x20 DUP1 SWAP2 DIV MUL PUSH1 0x20 ADD PUSH1 0x40 MLOAD SWAP1 DUP2 ADD PUSH1 0x40 MSTORE DUP1 SWAP3 SWAP2 SWAP1 DUP2 DUP2 MSTORE PUSH1 0x20 ADD DUP3 DUP1 SLOAD PUSH2 0x1484 SWAP1 PUSH2 0x230D JUMP JUMPDEST DUP1 ISZERO PUSH2 0x14D1 JUMPI DUP1 PUSH1 0x1F LT PUSH2 0x14A6 JUMPI PUSH2 0x100 DUP1 DUP4 SLOAD DIV MUL DUP4 MSTORE SWAP2 PUSH1 0x20 ADD SWAP2 PUSH2 0x14D1 JUMP JUMPDEST DUP3 ADD SWAP2 SWAP1 PUSH1 0x0 MSTORE PUSH1 0x20 PUSH1 0x0 KECCAK256 SWAP1 JUMPDEST DUP2 SLOAD DUP2 MSTORE SWAP1 PUSH1 0x1 ADD SWAP1 PUSH1 0x20 ADD DUP1 DUP4 GT PUSH2 0x14B4 JUMPI DUP3 SWAP1 SUB PUSH1 0x1F AND DUP3 ADD SWAP2 JUMPDEST POP POP POP POP POP DUP2 MSTORE PUSH1 0x20 ADD PUSH1 0x2 DUP3 ADD SLOAD DUP2 MSTORE PUSH1 0x20 ADD PUSH1 0x3 DUP3 ADD PUSH1 0x0 SWAP1 SLOAD SWAP1 PUSH2 0x100 EXP SWAP1 DIV PUSH20 0xFFFFFFFFFFFFFFFFFFFFFFFFFFFFFFFFFFFFFFFF AND PUSH20 0xFFFFFFFFFFFFFFFFFFFFFFFFFFFFFFFFFFFFFFFF AND PUSH20 0xFFFFFFFFFFFFFFFFFFFFFFFFFFFFFFFFFFFFFFFF AND DUP2 MSTORE PUSH1 0x20 ADD PUSH1 0x3 DUP3 ADD PUSH1 0x14 SWAP1 SLOAD SWAP1 PUSH2 0x100 EXP SWAP1 DIV PUSH1 0xFF AND ISZERO ISZERO ISZERO ISZERO DUP2 MSTORE PUSH1 0x20 ADD PUSH1 0x4 DUP3 ADD DUP1 SLOAD DUP1 PUSH1 0x20 MUL PUSH1 0x20 ADD PUSH1 0x40 MLOAD SWAP1 DUP2 ADD PUSH1 0x40 MSTORE DUP1 SWAP3 SWAP2 SWAP1 DUP2 DUP2 MSTORE PUSH1 0x20 ADD PUSH1 0x0 SWAP1 JUMPDEST DUP3 DUP3 LT ISZERO PUSH2 0x1626 JUMPI DUP4 DUP3 SWAP1 PUSH1 0x0 MSTORE PUSH1 0x20 PUSH1 0x0 KECCAK256 ADD DUP1 SLOAD PUSH2 0x1599 SWAP1 PUSH2 0x230D JUMP JUMPDEST DUP1 PUSH1 0x1F ADD PUSH1 0x20 DUP1 SWAP2 DIV MUL PUSH1 0x20 ADD PUSH1 0x40 MLOAD SWAP1 DUP2 ADD PUSH1 0x40 MSTORE DUP1 SWAP3 SWAP2 SWAP1 DUP2 DUP2 MSTORE PUSH1 0x20 ADD DUP3 DUP1 SLOAD PUSH2 0x15C5 SWAP1 PUSH2 0x230D JUMP JUMPDEST DUP1 ISZERO PUSH2 0x1612 JUMPI DUP1 PUSH1 0x1F LT PUSH2 0x15E7 JUMPI PUSH2 0x100 DUP1 DUP4 SLOAD DIV MUL DUP4 MSTORE SWAP2 PUSH1 0x20 ADD SWAP2 PUSH2 0x1612 JUMP JUMPDEST DUP3 ADD SWAP2 SWAP1 PUSH1 0x0 MSTORE PUSH1 0x20 PUSH1 0x0 KECCAK256 SWAP1 JUMPDEST DUP2 SLOAD DUP2 MSTORE SWAP1 PUSH1 0x1 ADD SWAP1 PUSH1 0x20 ADD DUP1 DUP4 GT PUSH2 0x15F5 JUMPI DUP3 SWAP1 SUB PUSH1 0x1F AND DUP3 ADD SWAP2 JUMPDEST POP POP POP POP POP DUP2 MSTORE PUSH1 0x20 ADD SWAP1 PUSH1 0x1 ADD SWAP1 PUSH2 0x157A JUMP JUMPDEST POP POP POP POP DUP2 MSTORE POP POP SWAP1 POP PUSH32 0xBD4DB8F848AF3F94C726FC28BC2DECCEBA8E2D15E945C5B7011867E915BA5DF9 DUP2 PUSH1 0x0 ADD MLOAD DUP3 PUSH1 0x20 ADD MLOAD DUP4 PUSH1 0x40 ADD MLOAD DUP5 PUSH1 0x60 ADD MLOAD DUP6 PUSH1 0x80 ADD MLOAD DUP7 PUSH1 0xA0 ADD MLOAD PUSH1 0x40 MLOAD PUSH2 0x1681 SWAP7 SWAP6 SWAP5 SWAP4 SWAP3 SWAP2 SWAP1 PUSH2 0x2A86 JUMP JUMPDEST PUSH1 0x40 MLOAD DUP1 SWAP2 SUB SWAP1 LOG1 DUP1 SWAP2 POP POP SWAP2 SWAP1 POP JUMP JUMPDEST PUSH1 0x60 PUSH1 0x3 PUSH1 0x0 DUP4 PUSH20 0xFFFFFFFFFFFFFFFFFFFFFFFFFFFFFFFFFFFFFFFF AND PUSH20 0xFFFFFFFFFFFFFFFFFFFFFFFFFFFFFFFFFFFFFFFF AND DUP2 MSTORE PUSH1 0x20 ADD SWAP1 DUP2 MSTORE PUSH1 0x20 ADD PUSH1 0x0 KECCAK256 PUSH1 0x0 ADD DUP1 SLOAD PUSH2 0x16E1 SWAP1 PUSH2 0x230D JUMP JUMPDEST DUP1 PUSH1 0x1F ADD PUSH1 0x20 DUP1 SWAP2 DIV MUL PUSH1 0x20 ADD PUSH1 0x40 MLOAD SWAP1 DUP2 ADD PUSH1 0x40 MSTORE DUP1 SWAP3 SWAP2 SWAP1 DUP2 DUP2 MSTORE PUSH1 0x20 ADD DUP3 DUP1 SLOAD PUSH2 0x170D SWAP1 PUSH2 0x230D JUMP JUMPDEST DUP1 ISZERO PUSH2 0x175A JUMPI DUP1 PUSH1 0x1F LT PUSH2 0x172F JUMPI PUSH2 0x100 DUP1 DUP4 SLOAD DIV MUL DUP4 MSTORE SWAP2 PUSH1 0x20 ADD SWAP2 PUSH2 0x175A JUMP JUMPDEST DUP3 ADD SWAP2 SWAP1 PUSH1 0x0 MSTORE PUSH1 0x20 PUSH1 0x0 KECCAK256 SWAP1 JUMPDEST DUP2 SLOAD DUP2 MSTORE SWAP1 PUSH1 0x1 ADD SWAP1 PUSH1 0x20 ADD DUP1 DUP4 GT PUSH2 0x173D JUMPI DUP3 SWAP1 SUB PUSH1 0x1F AND DUP3 ADD SWAP2 JUMPDEST POP POP POP POP POP SWAP1 POP SWAP2 SWAP1 POP JUMP JUMPDEST PUSH1 0x60 PUSH1 0x0 PUSH1 0x1 PUSH2 0x1775 DUP5 PUSH2 0x185C JUMP JUMPDEST ADD SWAP1 POP PUSH1 0x0 DUP2 PUSH8 0xFFFFFFFFFFFFFFFF DUP2 GT ISZERO PUSH2 0x1794 JUMPI PUSH2 0x1793 PUSH2 0x1D2A JUMP JUMPDEST JUMPDEST PUSH1 0x40 MLOAD SWAP1 DUP1 DUP3 MSTORE DUP1 PUSH1 0x1F ADD PUSH1 0x1F NOT AND PUSH1 0x20 ADD DUP3 ADD PUSH1 0x40 MSTORE DUP1 ISZERO PUSH2 0x17C6 JUMPI DUP2 PUSH1 0x20 ADD PUSH1 0x1 DUP3 MUL DUP1 CALLDATASIZE DUP4 CALLDATACOPY DUP1 DUP3 ADD SWAP2 POP POP SWAP1 POP JUMPDEST POP SWAP1 POP PUSH1 0x0 DUP3 PUSH1 0x20 DUP4 ADD ADD SWAP1 POP JUMPDEST PUSH1 0x1 ISZERO PUSH2 0x1829 JUMPI DUP1 DUP1 PUSH1 0x1 SWAP1 SUB SWAP2 POP POP PUSH32 0x3031323334353637383961626364656600000000000000000000000000000000 PUSH1 0xA DUP7 MOD BYTE DUP2 MSTORE8 PUSH1 0xA DUP6 DUP2 PUSH2 0x181D JUMPI PUSH2 0x181C PUSH2 0x2B68 JUMP JUMPDEST JUMPDEST DIV SWAP5 POP PUSH1 0x0 DUP6 SUB PUSH2 0x17D4 JUMPI JUMPDEST DUP2 SWAP4 POP POP POP POP SWAP2 SWAP1 POP JUMP JUMPDEST PUSH1 0x0 DUP2 MLOAD DUP4 MLOAD EQ DUP1 ISZERO PUSH2 0x1854 JUMPI POP DUP2 DUP1 MLOAD SWAP1 PUSH1 0x20 ADD KECCAK256 DUP4 DUP1 MLOAD SWAP1 PUSH1 0x20 ADD KECCAK256 EQ JUMPDEST SWAP1 POP SWAP3 SWAP2 POP POP JUMP JUMPDEST PUSH1 0x0 DUP1 PUSH1 0x0 SWAP1 POP PUSH27 0x184F03E93FF9F4DAA797ED6E38ED64BF6A1F010000000000000000 DUP4 LT PUSH2 0x18BA JUMPI PUSH27 0x184F03E93FF9F4DAA797ED6E38ED64BF6A1F010000000000000000 DUP4 DUP2 PUSH2 0x18B0 JUMPI PUSH2 0x18AF PUSH2 0x2B68 JUMP JUMPDEST JUMPDEST DIV SWAP3 POP PUSH1 0x40 DUP2 ADD SWAP1 POP JUMPDEST PUSH14 0x4EE2D6D415B85ACEF8100000000 DUP4 LT PUSH2 0x18F7 JUMPI PUSH14 0x4EE2D6D415B85ACEF8100000000 DUP4 DUP2 PUSH2 0x18ED JUMPI PUSH2 0x18EC PUSH2 0x2B68 JUMP JUMPDEST JUMPDEST DIV SWAP3 POP PUSH1 0x20 DUP2 ADD SWAP1 POP JUMPDEST PUSH7 0x2386F26FC10000 DUP4 LT PUSH2 0x1926 JUMPI PUSH7 0x2386F26FC10000 DUP4 DUP2 PUSH2 0x191C JUMPI PUSH2 0x191B PUSH2 0x2B68 JUMP JUMPDEST JUMPDEST DIV SWAP3 POP PUSH1 0x10 DUP2 ADD SWAP1 POP JUMPDEST PUSH4 0x5F5E100 DUP4 LT PUSH2 0x194F JUMPI PUSH4 0x5F5E100 DUP4 DUP2 PUSH2 0x1945 JUMPI PUSH2 0x1944 PUSH2 0x2B68 JUMP JUMPDEST JUMPDEST DIV SWAP3 POP PUSH1 0x8 DUP2 ADD SWAP1 POP JUMPDEST PUSH2 0x2710 DUP4 LT PUSH2 0x1974 JUMPI PUSH2 0x2710 DUP4 DUP2 PUSH2 0x196A JUMPI PUSH2 0x1969 PUSH2 0x2B68 JUMP JUMPDEST JUMPDEST DIV SWAP3 POP PUSH1 0x4 DUP2 ADD SWAP1 POP JUMPDEST PUSH1 0x64 DUP4 LT PUSH2 0x1997 JUMPI PUSH1 0x64 DUP4 DUP2 PUSH2 0x198D JUMPI PUSH2 0x198C PUSH2 0x2B68 JUMP JUMPDEST JUMPDEST DIV SWAP3 POP PUSH1 0x2 DUP2 ADD SWAP1 POP JUMPDEST PUSH1 0xA DUP4 LT PUSH2 0x19A6 JUMPI PUSH1 0x1 DUP2 ADD SWAP1 POP JUMPDEST DUP1 SWAP2 POP POP SWAP2 SWAP1 POP JUMP JUMPDEST DUP3 DUP1 SLOAD DUP3 DUP3 SSTORE SWAP1 PUSH1 0x0 MSTORE PUSH1 0x20 PUSH1 0x0 KECCAK256 SWAP1 DUP2 ADD SWAP3 DUP3 ISZERO PUSH2 0x19F7 JUMPI SWAP2 PUSH1 0x20 MUL DUP3 ADD JUMPDEST DUP3 DUP2 GT ISZERO PUSH2 0x19F6 JUMPI DUP3 MLOAD DUP3 SWAP1 DUP2 PUSH2 0x19E6 SWAP2 SWAP1 PUSH2 0x2764 JUMP JUMPDEST POP SWAP2 PUSH1 0x20 ADD SWAP2 SWAP1 PUSH1 0x1 ADD SWAP1 PUSH2 0x19CF JUMP JUMPDEST JUMPDEST POP SWAP1 POP PUSH2 0x1A04 SWAP2 SWAP1 PUSH2 0x1A56 JUMP JUMPDEST POP SWAP1 JUMP JUMPDEST PUSH1 0x40 MLOAD DUP1 PUSH1 0xC0 ADD PUSH1 0x40 MSTORE DUP1 PUSH1 0x60 DUP2 MSTORE PUSH1 0x20 ADD PUSH1 0x60 DUP2 MSTORE PUSH1 0x20 ADD PUSH1 0x0 DUP2 MSTORE PUSH1 0x20 ADD PUSH1 0x0 PUSH20 0xFFFFFFFFFFFFFFFFFFFFFFFFFFFFFFFFFFFFFFFF AND DUP2 MSTORE PUSH1 0x20 ADD PUSH1 0x0 ISZERO ISZERO DUP2 MSTORE PUSH1 0x20 ADD PUSH1 0x60 DUP2 MSTORE POP SWAP1 JUMP JUMPDEST JUMPDEST DUP1 DUP3 GT ISZERO PUSH2 0x1A76 JUMPI PUSH1 0x0 DUP2 DUP2 PUSH2 0x1A6D SWAP2 SWAP1 PUSH2 0x1A7A JUMP JUMPDEST POP PUSH1 0x1 ADD PUSH2 0x1A57 JUMP JUMPDEST POP SWAP1 JUMP JUMPDEST POP DUP1 SLOAD PUSH2 0x1A86 SWAP1 PUSH2 0x230D JUMP JUMPDEST PUSH1 0x0 DUP3 SSTORE DUP1 PUSH1 0x1F LT PUSH2 0x1A98 JUMPI POP PUSH2 0x1AB7 JUMP JUMPDEST PUSH1 0x1F ADD PUSH1 0x20 SWAP1 DIV SWAP1 PUSH1 0x0 MSTORE PUSH1 0x20 PUSH1 0x0 KECCAK256 SWAP1 DUP2 ADD SWAP1 PUSH2 0x1AB6 SWAP2 SWAP1 PUSH2 0x1ABA JUMP JUMPDEST JUMPDEST POP JUMP JUMPDEST JUMPDEST DUP1 DUP3 GT ISZERO PUSH2 0x1AD3 JUMPI PUSH1 0x0 DUP2 PUSH1 0x0 SWAP1 SSTORE POP PUSH1 0x1 ADD PUSH2 0x1ABB JUMP JUMPDEST POP SWAP1 JUMP JUMPDEST PUSH1 0x0 PUSH1 0x40 MLOAD SWAP1 POP SWAP1 JUMP JUMPDEST PUSH1 0x0 DUP1 REVERT JUMPDEST PUSH1 0x0 DUP1 REVERT JUMPDEST PUSH1 0x0 DUP2 SWAP1 POP SWAP2 SWAP1 POP JUMP JUMPDEST PUSH2 0x1AFE DUP2 PUSH2 0x1AEB JUMP JUMPDEST DUP2 EQ PUSH2 0x1B09 JUMPI PUSH1 0x0 DUP1 REVERT JUMPDEST POP JUMP JUMPDEST PUSH1 0x0 DUP2 CALLDATALOAD SWAP1 POP PUSH2 0x1B1B DUP2 PUSH2 0x1AF5 JUMP JUMPDEST SWAP3 SWAP2 POP POP JUMP JUMPDEST PUSH1 0x0 PUSH1 0x20 DUP3 DUP5 SUB SLT ISZERO PUSH2 0x1B37 JUMPI PUSH2 0x1B36 PUSH2 0x1AE1 JUMP JUMPDEST JUMPDEST PUSH1 0x0 PUSH2 0x1B45 DUP5 DUP3 DUP6 ADD PUSH2 0x1B0C JUMP JUMPDEST SWAP2 POP POP SWAP3 SWAP2 POP POP JUMP JUMPDEST PUSH1 0x0 DUP2 MLOAD SWAP1 POP SWAP2 SWAP1 POP JUMP JUMPDEST PUSH1 0x0 DUP3 DUP3 MSTORE PUSH1 0x20 DUP3 ADD SWAP1 POP SWAP3 SWAP2 POP POP JUMP JUMPDEST PUSH1 0x0 DUP2 SWAP1 POP PUSH1 0x20 DUP3 ADD SWAP1 POP SWAP2 SWAP1 POP JUMP JUMPDEST PUSH1 0x0 DUP2 MLOAD SWAP1 POP SWAP2 SWAP1 POP JUMP JUMPDEST PUSH1 0x0 DUP3 DUP3 MSTORE PUSH1 0x20 DUP3 ADD SWAP1 POP SWAP3 SWAP2 POP POP JUMP JUMPDEST PUSH1 0x0 JUMPDEST DUP4 DUP2 LT ISZERO PUSH2 0x1BB4 JUMPI DUP1 DUP3 ADD MLOAD DUP2 DUP5 ADD MSTORE PUSH1 0x20 DUP2 ADD SWAP1 POP PUSH2 0x1B99 JUMP JUMPDEST PUSH1 0x0 DUP5 DUP5 ADD MSTORE POP POP POP POP JUMP JUMPDEST PUSH1 0x0 PUSH1 0x1F NOT PUSH1 0x1F DUP4 ADD AND SWAP1 POP SWAP2 SWAP1 POP JUMP JUMPDEST PUSH1 0x0 PUSH2 0x1BDC DUP3 PUSH2 0x1B7A JUMP JUMPDEST PUSH2 0x1BE6 DUP2 DUP6 PUSH2 0x1B85 JUMP JUMPDEST SWAP4 POP PUSH2 0x1BF6 DUP2 DUP6 PUSH1 0x20 DUP7 ADD PUSH2 0x1B96 JUMP JUMPDEST PUSH2 0x1BFF DUP2 PUSH2 0x1BC0 JUMP JUMPDEST DUP5 ADD SWAP2 POP POP SWAP3 SWAP2 POP POP JUMP JUMPDEST PUSH1 0x0 PUSH2 0x1C16 DUP4 DUP4 PUSH2 0x1BD1 JUMP JUMPDEST SWAP1 POP SWAP3 SWAP2 POP POP JUMP JUMPDEST PUSH1 0x0 PUSH1 0x20 DUP3 ADD SWAP1 POP SWAP2 SWAP1 POP JUMP JUMPDEST PUSH1 0x0 PUSH2 0x1C36 DUP3 PUSH2 0x1B4E JUMP JUMPDEST PUSH2 0x1C40 DUP2 DUP6 PUSH2 0x1B59 JUMP JUMPDEST SWAP4 POP DUP4 PUSH1 0x20 DUP3 MUL DUP6 ADD PUSH2 0x1C52 DUP6 PUSH2 0x1B6A JUMP JUMPDEST DUP1 PUSH1 0x0 JUMPDEST DUP6 DUP2 LT ISZERO PUSH2 0x1C8E JUMPI DUP5 DUP5 SUB DUP10 MSTORE DUP2 MLOAD PUSH2 0x1C6F DUP6 DUP3 PUSH2 0x1C0A JUMP JUMPDEST SWAP5 POP PUSH2 0x1C7A DUP4 PUSH2 0x1C1E JUMP JUMPDEST SWAP3 POP PUSH1 0x20 DUP11 ADD SWAP10 POP POP PUSH1 0x1 DUP2 ADD SWAP1 POP PUSH2 0x1C56 JUMP JUMPDEST POP DUP3 SWAP8 POP DUP8 SWAP6 POP POP POP POP POP POP SWAP3 SWAP2 POP POP JUMP JUMPDEST PUSH1 0x0 PUSH1 0x20 DUP3 ADD SWAP1 POP DUP2 DUP2 SUB PUSH1 0x0 DUP4 ADD MSTORE PUSH2 0x1CBA DUP2 DUP5 PUSH2 0x1C2B JUMP JUMPDEST SWAP1 POP SWAP3 SWAP2 POP POP JUMP JUMPDEST PUSH1 0x0 PUSH20 0xFFFFFFFFFFFFFFFFFFFFFFFFFFFFFFFFFFFFFFFF DUP3 AND SWAP1 POP SWAP2 SWAP1 POP JUMP JUMPDEST PUSH1 0x0 PUSH2 0x1CED DUP3 PUSH2 0x1CC2 JUMP JUMPDEST SWAP1 POP SWAP2 SWAP1 POP JUMP JUMPDEST PUSH2 0x1CFD DUP2 PUSH2 0x1CE2 JUMP JUMPDEST DUP2 EQ PUSH2 0x1D08 JUMPI PUSH1 0x0 DUP1 REVERT JUMPDEST POP JUMP JUMPDEST PUSH1 0x0 DUP2 CALLDATALOAD SWAP1 POP PUSH2 0x1D1A DUP2 PUSH2 0x1CF4 JUMP JUMPDEST SWAP3 SWAP2 POP POP JUMP JUMPDEST PUSH1 0x0 DUP1 REVERT JUMPDEST PUSH1 0x0 DUP1 REVERT JUMPDEST PUSH32 0x4E487B7100000000000000000000000000000000000000000000000000000000 PUSH1 0x0 MSTORE PUSH1 0x41 PUSH1 0x4 MSTORE PUSH1 0x24 PUSH1 0x0 REVERT JUMPDEST PUSH2 0x1D62 DUP3 PUSH2 0x1BC0 JUMP JUMPDEST DUP2 ADD DUP2 DUP2 LT PUSH8 0xFFFFFFFFFFFFFFFF DUP3 GT OR ISZERO PUSH2 0x1D81 JUMPI PUSH2 0x1D80 PUSH2 0x1D2A JUMP JUMPDEST JUMPDEST DUP1 PUSH1 0x40 MSTORE POP POP POP JUMP JUMPDEST PUSH1 0x0 PUSH2 0x1D94 PUSH2 0x1AD7 JUMP JUMPDEST SWAP1 POP PUSH2 0x1DA0 DUP3 DUP3 PUSH2 0x1D59 JUMP JUMPDEST SWAP2 SWAP1 POP JUMP JUMPDEST PUSH1 0x0 PUSH8 0xFFFFFFFFFFFFFFFF DUP3 GT ISZERO PUSH2 0x1DC0 JUMPI PUSH2 0x1DBF PUSH2 0x1D2A JUMP JUMPDEST JUMPDEST PUSH2 0x1DC9 DUP3 PUSH2 0x1BC0 JUMP JUMPDEST SWAP1 POP PUSH1 0x20 DUP2 ADD SWAP1 POP SWAP2 SWAP1 POP JUMP JUMPDEST DUP3 DUP2 DUP4 CALLDATACOPY PUSH1 0x0 DUP4 DUP4 ADD MSTORE POP POP POP JUMP JUMPDEST PUSH1 0x0 PUSH2 0x1DF8 PUSH2 0x1DF3 DUP5 PUSH2 0x1DA5 JUMP JUMPDEST PUSH2 0x1D8A JUMP JUMPDEST SWAP1 POP DUP3 DUP2 MSTORE PUSH1 0x20 DUP2 ADD DUP5 DUP5 DUP5 ADD GT ISZERO PUSH2 0x1E14 JUMPI PUSH2 0x1E13 PUSH2 0x1D25 JUMP JUMPDEST JUMPDEST PUSH2 0x1E1F DUP5 DUP3 DUP6 PUSH2 0x1DD6 JUMP JUMPDEST POP SWAP4 SWAP3 POP POP POP JUMP JUMPDEST PUSH1 0x0 DUP3 PUSH1 0x1F DUP4 ADD SLT PUSH2 0x1E3C JUMPI PUSH2 0x1E3B PUSH2 0x1D20 JUMP JUMPDEST JUMPDEST DUP2 CALLDATALOAD PUSH2 0x1E4C DUP5 DUP3 PUSH1 0x20 DUP7 ADD PUSH2 0x1DE5 JUMP JUMPDEST SWAP2 POP POP SWAP3 SWAP2 POP POP JUMP JUMPDEST PUSH1 0x0 DUP1 PUSH1 0x0 PUSH1 0x60 DUP5 DUP7 SUB SLT ISZERO PUSH2 0x1E6E JUMPI PUSH2 0x1E6D PUSH2 0x1AE1 JUMP JUMPDEST JUMPDEST PUSH1 0x0 PUSH2 0x1E7C DUP7 DUP3 DUP8 ADD PUSH2 0x1D0B JUMP JUMPDEST SWAP4 POP POP PUSH1 0x20 PUSH2 0x1E8D DUP7 DUP3 DUP8 ADD PUSH2 0x1B0C JUMP JUMPDEST SWAP3 POP POP PUSH1 0x40 DUP5 ADD CALLDATALOAD PUSH8 0xFFFFFFFFFFFFFFFF DUP2 GT ISZERO PUSH2 0x1EAE JUMPI PUSH2 0x1EAD PUSH2 0x1AE6 JUMP JUMPDEST JUMPDEST PUSH2 0x1EBA DUP7 DUP3 DUP8 ADD PUSH2 0x1E27 JUMP JUMPDEST SWAP2 POP POP SWAP3 POP SWAP3 POP SWAP3 JUMP JUMPDEST PUSH1 0x0 DUP2 ISZERO ISZERO SWAP1 POP SWAP2 SWAP1 POP JUMP JUMPDEST PUSH2 0x1ED9 DUP2 PUSH2 0x1EC4 JUMP JUMPDEST DUP3 MSTORE POP POP JUMP JUMPDEST PUSH1 0x0 PUSH1 0x20 DUP3 ADD SWAP1 POP PUSH2 0x1EF4 PUSH1 0x0 DUP4 ADD DUP5 PUSH2 0x1ED0 JUMP JUMPDEST SWAP3 SWAP2 POP POP JUMP JUMPDEST PUSH1 0x0 DUP1 PUSH1 0x40 DUP4 DUP6 SUB SLT ISZERO PUSH2 0x1F11 JUMPI PUSH2 0x1F10 PUSH2 0x1AE1 JUMP JUMPDEST JUMPDEST PUSH1 0x0 PUSH2 0x1F1F DUP6 DUP3 DUP7 ADD PUSH2 0x1D0B JUMP JUMPDEST SWAP3 POP POP PUSH1 0x20 PUSH2 0x1F30 DUP6 DUP3 DUP7 ADD PUSH2 0x1B0C JUMP JUMPDEST SWAP2 POP POP SWAP3 POP SWAP3 SWAP1 POP JUMP JUMPDEST PUSH2 0x1F43 DUP2 PUSH2 0x1CE2 JUMP JUMPDEST DUP3 MSTORE POP POP JUMP JUMPDEST PUSH1 0x0 PUSH1 0x20 DUP3 ADD SWAP1 POP PUSH2 0x1F5E PUSH1 0x0 DUP4 ADD DUP5 PUSH2 0x1F3A JUMP JUMPDEST SWAP3 SWAP2 POP POP JUMP JUMPDEST PUSH2 0x1F6D DUP2 PUSH2 0x1AEB JUMP JUMPDEST DUP3 MSTORE POP POP JUMP JUMPDEST PUSH1 0x0 PUSH1 0x20 DUP3 ADD SWAP1 POP PUSH2 0x1F88 PUSH1 0x0 DUP4 ADD DUP5 PUSH2 0x1F64 JUMP JUMPDEST SWAP3 SWAP2 POP POP JUMP JUMPDEST PUSH1 0x0 DUP1 PUSH1 0x40 DUP4 DUP6 SUB SLT ISZERO PUSH2 0x1FA5 JUMPI PUSH2 0x1FA4 PUSH2 0x1AE1 JUMP JUMPDEST JUMPDEST PUSH1 0x0 PUSH2 0x1FB3 DUP6 DUP3 DUP7 ADD PUSH2 0x1D0B JUMP JUMPDEST SWAP3 POP POP PUSH1 0x20 DUP4 ADD CALLDATALOAD PUSH8 0xFFFFFFFFFFFFFFFF DUP2 GT ISZERO PUSH2 0x1FD4 JUMPI PUSH2 0x1FD3 PUSH2 0x1AE6 JUMP JUMPDEST JUMPDEST PUSH2 0x1FE0 DUP6 DUP3 DUP7 ADD PUSH2 0x1E27 JUMP JUMPDEST SWAP2 POP POP SWAP3 POP SWAP3 SWAP1 POP JUMP JUMPDEST PUSH1 0x0 DUP1 PUSH1 0x0 DUP1 PUSH1 0x80 DUP6 DUP8 SUB SLT ISZERO PUSH2 0x2004 JUMPI PUSH2 0x2003 PUSH2 0x1AE1 JUMP JUMPDEST JUMPDEST PUSH1 0x0 PUSH2 0x2012 DUP8 DUP3 DUP9 ADD PUSH2 0x1D0B JUMP JUMPDEST SWAP5 POP POP PUSH1 0x20 DUP6 ADD CALLDATALOAD PUSH8 0xFFFFFFFFFFFFFFFF DUP2 GT ISZERO PUSH2 0x2033 JUMPI PUSH2 0x2032 PUSH2 0x1AE6 JUMP JUMPDEST JUMPDEST PUSH2 0x203F DUP8 DUP3 DUP9 ADD PUSH2 0x1E27 JUMP JUMPDEST SWAP4 POP POP PUSH1 0x40 DUP6 ADD CALLDATALOAD PUSH8 0xFFFFFFFFFFFFFFFF DUP2 GT ISZERO PUSH2 0x2060 JUMPI PUSH2 0x205F PUSH2 0x1AE6 JUMP JUMPDEST JUMPDEST PUSH2 0x206C DUP8 DUP3 DUP9 ADD PUSH2 0x1E27 JUMP JUMPDEST SWAP3 POP POP PUSH1 0x60 DUP6 ADD CALLDATALOAD PUSH8 0xFFFFFFFFFFFFFFFF DUP2 GT ISZERO PUSH2 0x208D JUMPI PUSH2 0x208C PUSH2 0x1AE6 JUMP JUMPDEST JUMPDEST PUSH2 0x2099 DUP8 DUP3 DUP9 ADD PUSH2 0x1E27 JUMP JUMPDEST SWAP2 POP POP SWAP3 SWAP6 SWAP2 SWAP5 POP SWAP3 POP JUMP JUMPDEST PUSH1 0x0 DUP2 SWAP1 POP SWAP2 SWAP1 POP JUMP JUMPDEST PUSH2 0x20B8 DUP2 PUSH2 0x20A5 JUMP JUMPDEST DUP3 MSTORE POP POP JUMP JUMPDEST PUSH1 0x0 PUSH1 0x20 DUP3 ADD SWAP1 POP PUSH2 0x20D3 PUSH1 0x0 DUP4 ADD DUP5 PUSH2 0x20AF JUMP JUMPDEST SWAP3 SWAP2 POP POP JUMP JUMPDEST PUSH2 0x20E2 DUP2 PUSH2 0x20A5 JUMP JUMPDEST DUP3 MSTORE POP POP JUMP JUMPDEST PUSH2 0x20F1 DUP2 PUSH2 0x1CE2 JUMP JUMPDEST DUP3 MSTORE POP POP JUMP JUMPDEST PUSH2 0x2100 DUP2 PUSH2 0x1EC4 JUMP JUMPDEST DUP3 MSTORE POP POP JUMP JUMPDEST PUSH1 0x0 DUP3 DUP3 MSTORE PUSH1 0x20 DUP3 ADD SWAP1 POP SWAP3 SWAP2 POP POP JUMP JUMPDEST PUSH1 0x0 PUSH2 0x2122 DUP3 PUSH2 0x1B4E JUMP JUMPDEST PUSH2 0x212C DUP2 DUP6 PUSH2 0x2106 JUMP JUMPDEST SWAP4 POP DUP4 PUSH1 0x20 DUP3 MUL DUP6 ADD PUSH2 0x213E DUP6 PUSH2 0x1B6A JUMP JUMPDEST DUP1 PUSH1 0x0 JUMPDEST DUP6 DUP2 LT ISZERO PUSH2 0x217A JUMPI DUP5 DUP5 SUB DUP10 MSTORE DUP2 MLOAD PUSH2 0x215B DUP6 DUP3 PUSH2 0x1C0A JUMP JUMPDEST SWAP5 POP PUSH2 0x2166 DUP4 PUSH2 0x1C1E JUMP JUMPDEST SWAP3 POP PUSH1 0x20 DUP11 ADD SWAP10 POP POP PUSH1 0x1 DUP2 ADD SWAP1 POP PUSH2 0x2142 JUMP JUMPDEST POP DUP3 SWAP8 POP DUP8 SWAP6 POP POP POP POP POP POP SWAP3 SWAP2 POP POP JUMP JUMPDEST PUSH1 0x0 PUSH1 0xC0 DUP4 ADD PUSH1 0x0 DUP4 ADD MLOAD DUP5 DUP3 SUB PUSH1 0x0 DUP7 ADD MSTORE PUSH2 0x21A9 DUP3 DUP3 PUSH2 0x1BD1 JUMP JUMPDEST SWAP2 POP POP PUSH1 0x20 DUP4 ADD MLOAD DUP5 DUP3 SUB PUSH1 0x20 DUP7 ADD MSTORE PUSH2 0x21C3 DUP3 DUP3 PUSH2 0x1BD1 JUMP JUMPDEST SWAP2 POP POP PUSH1 0x40 DUP4 ADD MLOAD PUSH2 0x21D8 PUSH1 0x40 DUP7 ADD DUP3 PUSH2 0x20D9 JUMP JUMPDEST POP PUSH1 0x60 DUP4 ADD MLOAD PUSH2 0x21EB PUSH1 0x60 DUP7 ADD DUP3 PUSH2 0x20E8 JUMP JUMPDEST POP PUSH1 0x80 DUP4 ADD MLOAD PUSH2 0x21FE PUSH1 0x80 DUP7 ADD DUP3 PUSH2 0x20F7 JUMP JUMPDEST POP PUSH1 0xA0 DUP4 ADD MLOAD DUP5 DUP3 SUB PUSH1 0xA0 DUP7 ADD MSTORE PUSH2 0x2216 DUP3 DUP3 PUSH2 0x2117 JUMP JUMPDEST SWAP2 POP POP DUP1 SWAP2 POP POP SWAP3 SWAP2 POP POP JUMP JUMPDEST PUSH1 0x0 PUSH1 0x20 DUP3 ADD SWAP1 POP DUP2 DUP2 SUB PUSH1 0x0 DUP4 ADD MSTORE PUSH2 0x223D DUP2 DUP5 PUSH2 0x218C JUMP JUMPDEST SWAP1 POP SWAP3 SWAP2 POP POP JUMP JUMPDEST PUSH1 0x0 PUSH1 0x20 DUP3 DUP5 SUB SLT ISZERO PUSH2 0x225B JUMPI PUSH2 0x225A PUSH2 0x1AE1 JUMP JUMPDEST JUMPDEST PUSH1 0x0 PUSH2 0x2269 DUP5 DUP3 DUP6 ADD PUSH2 0x1D0B JUMP JUMPDEST SWAP2 POP POP SWAP3 SWAP2 POP POP JUMP JUMPDEST PUSH1 0x0 DUP3 DUP3 MSTORE PUSH1 0x20 DUP3 ADD SWAP1 POP SWAP3 SWAP2 POP POP JUMP JUMPDEST PUSH1 0x0 PUSH2 0x228E DUP3 PUSH2 0x1B7A JUMP JUMPDEST PUSH2 0x2298 DUP2 DUP6 PUSH2 0x2272 JUMP JUMPDEST SWAP4 POP PUSH2 0x22A8 DUP2 DUP6 PUSH1 0x20 DUP7 ADD PUSH2 0x1B96 JUMP JUMPDEST PUSH2 0x22B1 DUP2 PUSH2 0x1BC0 JUMP JUMPDEST DUP5 ADD SWAP2 POP POP SWAP3 SWAP2 POP POP JUMP JUMPDEST PUSH1 0x0 PUSH1 0x20 DUP3 ADD SWAP1 POP DUP2 DUP2 SUB PUSH1 0x0 DUP4 ADD MSTORE PUSH2 0x22D6 DUP2 DUP5 PUSH2 0x2283 JUMP JUMPDEST SWAP1 POP SWAP3 SWAP2 POP POP JUMP JUMPDEST PUSH32 0x4E487B7100000000000000000000000000000000000000000000000000000000 PUSH1 0x0 MSTORE PUSH1 0x22 PUSH1 0x4 MSTORE PUSH1 0x24 PUSH1 0x0 REVERT JUMPDEST PUSH1 0x0 PUSH1 0x2 DUP3 DIV SWAP1 POP PUSH1 0x1 DUP3 AND DUP1 PUSH2 0x2325 JUMPI PUSH1 0x7F DUP3 AND SWAP2 POP JUMPDEST PUSH1 0x20 DUP3 LT DUP2 SUB PUSH2 0x2338 JUMPI PUSH2 0x2337 PUSH2 0x22DE JUMP JUMPDEST JUMPDEST POP SWAP2 SWAP1 POP JUMP JUMPDEST PUSH32 0x4F6E6C79206F776E65722063616E2063616C6C20746869732066756E6374696F PUSH1 0x0 DUP3 ADD MSTORE PUSH32 0x6E00000000000000000000000000000000000000000000000000000000000000 PUSH1 0x20 DUP3 ADD MSTORE POP JUMP JUMPDEST PUSH1 0x0 PUSH2 0x239A PUSH1 0x21 DUP4 PUSH2 0x2272 JUMP JUMPDEST SWAP2 POP PUSH2 0x23A5 DUP3 PUSH2 0x233E JUMP JUMPDEST PUSH1 0x40 DUP3 ADD SWAP1 POP SWAP2 SWAP1 POP JUMP JUMPDEST PUSH1 0x0 PUSH1 0x20 DUP3 ADD SWAP1 POP DUP2 DUP2 SUB PUSH1 0x0 DUP4 ADD MSTORE PUSH2 0x23C9 DUP2 PUSH2 0x238D JUMP JUMPDEST SWAP1 POP SWAP2 SWAP1 POP JUMP JUMPDEST PUSH32 0x456D7074792062616C616E636500000000000000000000000000000000000000 PUSH1 0x0 DUP3 ADD MSTORE POP JUMP JUMPDEST PUSH1 0x0 PUSH2 0x2406 PUSH1 0xD DUP4 PUSH2 0x2272 JUMP JUMPDEST SWAP2 POP PUSH2 0x2411 DUP3 PUSH2 0x23D0 JUMP JUMPDEST PUSH1 0x20 DUP3 ADD SWAP1 POP SWAP2 SWAP1 POP JUMP JUMPDEST PUSH1 0x0 PUSH1 0x20 DUP3 ADD SWAP1 POP DUP2 DUP2 SUB PUSH1 0x0 DUP4 ADD MSTORE PUSH2 0x2435 DUP2 PUSH2 0x23F9 JUMP JUMPDEST SWAP1 POP SWAP2 SWAP1 POP JUMP JUMPDEST PUSH1 0x0 DUP2 SWAP1 POP SWAP3 SWAP2 POP POP JUMP JUMPDEST POP JUMP JUMPDEST PUSH1 0x0 PUSH2 0x2457 PUSH1 0x0 DUP4 PUSH2 0x243C JUMP JUMPDEST SWAP2 POP PUSH2 0x2462 DUP3 PUSH2 0x2447 JUMP JUMPDEST PUSH1 0x0 DUP3 ADD SWAP1 POP SWAP2 SWAP1 POP JUMP JUMPDEST PUSH1 0x0 PUSH2 0x2478 DUP3 PUSH2 0x244A JUMP JUMPDEST SWAP2 POP DUP2 SWAP1 POP SWAP2 SWAP1 POP JUMP JUMPDEST PUSH32 0x5769746864726177616C206661696C6564000000000000000000000000000000 PUSH1 0x0 DUP3 ADD MSTORE POP JUMP JUMPDEST PUSH1 0x0 PUSH2 0x24B8 PUSH1 0x11 DUP4 PUSH2 0x2272 JUMP JUMPDEST SWAP2 POP PUSH2 0x24C3 DUP3 PUSH2 0x2482 JUMP JUMPDEST PUSH1 0x20 DUP3 ADD SWAP1 POP SWAP2 SWAP1 POP JUMP JUMPDEST PUSH1 0x0 PUSH1 0x20 DUP3 ADD SWAP1 POP DUP2 DUP2 SUB PUSH1 0x0 DUP4 ADD MSTORE PUSH2 0x24E7 DUP2 PUSH2 0x24AB JUMP JUMPDEST SWAP1 POP SWAP2 SWAP1 POP JUMP JUMPDEST PUSH32 0x436F6E73756D65722C416E6F6E796D6F75732C00000000000000000000000000 DUP2 MSTORE POP JUMP JUMPDEST PUSH1 0x0 DUP2 SWAP1 POP SWAP3 SWAP2 POP POP JUMP JUMPDEST PUSH1 0x0 PUSH2 0x252A DUP3 PUSH2 0x1B7A JUMP JUMPDEST PUSH2 0x2534 DUP2 DUP6 PUSH2 0x2514 JUMP JUMPDEST SWAP4 POP PUSH2 0x2544 DUP2 DUP6 PUSH1 0x20 DUP7 ADD PUSH2 0x1B96 JUMP JUMPDEST DUP1 DUP5 ADD SWAP2 POP POP SWAP3 SWAP2 POP POP JUMP JUMPDEST PUSH32 0x2C00000000000000000000000000000000000000000000000000000000000000 DUP2 MSTORE POP JUMP JUMPDEST PUSH1 0x0 PUSH2 0x2581 DUP3 PUSH2 0x24EE JUMP JUMPDEST PUSH1 0x13 DUP3 ADD SWAP2 POP PUSH2 0x2591 DUP3 DUP6 PUSH2 0x251F JUMP JUMPDEST SWAP2 POP PUSH2 0x259C DUP3 PUSH2 0x2550 JUMP JUMPDEST PUSH1 0x1 DUP3 ADD SWAP2 POP PUSH2 0x25AC DUP3 DUP5 PUSH2 0x251F JUMP JUMPDEST SWAP2 POP DUP2 SWAP1 POP SWAP4 SWAP3 POP POP POP JUMP JUMPDEST PUSH1 0x0 DUP2 SWAP1 POP DUP2 PUSH1 0x0 MSTORE PUSH1 0x20 PUSH1 0x0 KECCAK256 SWAP1 POP SWAP2 SWAP1 POP JUMP JUMPDEST PUSH1 0x0 PUSH1 0x20 PUSH1 0x1F DUP4 ADD DIV SWAP1 POP SWAP2 SWAP1 POP JUMP JUMPDEST PUSH1 0x0 DUP3 DUP3 SHL SWAP1 POP SWAP3 SWAP2 POP POP JUMP JUMPDEST PUSH1 0x0 PUSH1 0x8 DUP4 MUL PUSH2 0x261A PUSH32 0xFFFFFFFFFFFFFFFFFFFFFFFFFFFFFFFFFFFFFFFFFFFFFFFFFFFFFFFFFFFFFFFF DUP3 PUSH2 0x25DD JUMP JUMPDEST PUSH2 0x2624 DUP7 DUP4 PUSH2 0x25DD JUMP JUMPDEST SWAP6 POP DUP1 NOT DUP5 AND SWAP4 POP DUP1 DUP7 AND DUP5 OR SWAP3 POP POP POP SWAP4 SWAP3 POP POP POP JUMP JUMPDEST PUSH1 0x0 DUP2 SWAP1 POP SWAP2 SWAP1 POP JUMP JUMPDEST PUSH1 0x0 PUSH2 0x2661 PUSH2 0x265C PUSH2 0x2657 DUP5 PUSH2 0x20A5 JUMP JUMPDEST PUSH2 0x263C JUMP JUMPDEST PUSH2 0x20A5 JUMP JUMPDEST SWAP1 POP SWAP2 SWAP1 POP JUMP JUMPDEST PUSH1 0x0 DUP2 SWAP1 POP SWAP2 SWAP1 POP JUMP JUMPDEST PUSH2 0x267B DUP4 PUSH2 0x2646 JUMP JUMPDEST PUSH2 0x268F PUSH2 0x2687 DUP3 PUSH2 0x2668 JUMP JUMPDEST DUP5 DUP5 SLOAD PUSH2 0x25EA JUMP JUMPDEST DUP3 SSTORE POP POP POP POP JUMP JUMPDEST PUSH1 0x0 SWAP1 JUMP JUMPDEST PUSH2 0x26A4 PUSH2 0x2697 JUMP JUMPDEST PUSH2 0x26AF DUP2 DUP5 DUP5 PUSH2 0x2672 JUMP JUMPDEST POP POP POP JUMP JUMPDEST JUMPDEST DUP2 DUP2 LT ISZERO PUSH2 0x26D3 JUMPI PUSH2 0x26C8 PUSH1 0x0 DUP3 PUSH2 0x269C JUMP JUMPDEST PUSH1 0x1 DUP2 ADD SWAP1 POP PUSH2 0x26B5 JUMP JUMPDEST POP POP JUMP JUMPDEST PUSH1 0x1F DUP3 GT ISZERO PUSH2 0x2718 JUMPI PUSH2 0x26E9 DUP2 PUSH2 0x25B8 JUMP JUMPDEST PUSH2 0x26F2 DUP5 PUSH2 0x25CD JUMP JUMPDEST DUP2 ADD PUSH1 0x20 DUP6 LT ISZERO PUSH2 0x2701 JUMPI DUP2 SWAP1 POP JUMPDEST PUSH2 0x2715 PUSH2 0x270D DUP6 PUSH2 0x25CD JUMP JUMPDEST DUP4 ADD DUP3 PUSH2 0x26B4 JUMP JUMPDEST POP POP JUMPDEST POP POP POP JUMP JUMPDEST PUSH1 0x0 DUP3 DUP3 SHR SWAP1 POP SWAP3 SWAP2 POP POP JUMP JUMPDEST PUSH1 0x0 PUSH2 0x273B PUSH1 0x0 NOT DUP5 PUSH1 0x8 MUL PUSH2 0x271D JUMP JUMPDEST NOT DUP1 DUP4 AND SWAP2 POP POP SWAP3 SWAP2 POP POP JUMP JUMPDEST PUSH1 0x0 PUSH2 0x2754 DUP4 DUP4 PUSH2 0x272A JUMP JUMPDEST SWAP2 POP DUP3 PUSH1 0x2 MUL DUP3 OR SWAP1 POP SWAP3 SWAP2 POP POP JUMP JUMPDEST PUSH2 0x276D DUP3 PUSH2 0x1B7A JUMP JUMPDEST PUSH8 0xFFFFFFFFFFFFFFFF DUP2 GT ISZERO PUSH2 0x2786 JUMPI PUSH2 0x2785 PUSH2 0x1D2A JUMP JUMPDEST JUMPDEST PUSH2 0x2790 DUP3 SLOAD PUSH2 0x230D JUMP JUMPDEST PUSH2 0x279B DUP3 DUP3 DUP6 PUSH2 0x26D7 JUMP JUMPDEST PUSH1 0x0 PUSH1 0x20 SWAP1 POP PUSH1 0x1F DUP4 GT PUSH1 0x1 DUP2 EQ PUSH2 0x27CE JUMPI PUSH1 0x0 DUP5 ISZERO PUSH2 0x27BC JUMPI DUP3 DUP8 ADD MLOAD SWAP1 POP JUMPDEST PUSH2 0x27C6 DUP6 DUP3 PUSH2 0x2748 JUMP JUMPDEST DUP7 SSTORE POP PUSH2 0x282E JUMP JUMPDEST PUSH1 0x1F NOT DUP5 AND PUSH2 0x27DC DUP7 PUSH2 0x25B8 JUMP JUMPDEST PUSH1 0x0 JUMPDEST DUP3 DUP2 LT ISZERO PUSH2 0x2804 JUMPI DUP5 DUP10 ADD MLOAD DUP3 SSTORE PUSH1 0x1 DUP3 ADD SWAP2 POP PUSH1 0x20 DUP6 ADD SWAP5 POP PUSH1 0x20 DUP2 ADD SWAP1 POP PUSH2 0x27DF JUMP JUMPDEST DUP7 DUP4 LT ISZERO PUSH2 0x2821 JUMPI DUP5 DUP10 ADD MLOAD PUSH2 0x281D PUSH1 0x1F DUP10 AND DUP3 PUSH2 0x272A JUMP JUMPDEST DUP4 SSTORE POP JUMPDEST PUSH1 0x1 PUSH1 0x2 DUP9 MUL ADD DUP9 SSTORE POP POP POP JUMPDEST POP POP POP POP POP POP JUMP JUMPDEST PUSH1 0x0 DUP2 SLOAD PUSH2 0x2843 DUP2 PUSH2 0x230D JUMP JUMPDEST PUSH2 0x284D DUP2 DUP7 PUSH2 0x2514 JUMP JUMPDEST SWAP5 POP PUSH1 0x1 DUP3 AND PUSH1 0x0 DUP2 EQ PUSH2 0x2868 JUMPI PUSH1 0x1 DUP2 EQ PUSH2 0x287D JUMPI PUSH2 0x28B0 JUMP JUMPDEST PUSH1 0xFF NOT DUP4 AND DUP7 MSTORE DUP2 ISZERO ISZERO DUP3 MUL DUP7 ADD SWAP4 POP PUSH2 0x28B0 JUMP JUMPDEST PUSH2 0x2886 DUP6 PUSH2 0x25B8 JUMP JUMPDEST PUSH1 0x0 JUMPDEST DUP4 DUP2 LT ISZERO PUSH2 0x28A8 JUMPI DUP2 SLOAD DUP2 DUP10 ADD MSTORE PUSH1 0x1 DUP3 ADD SWAP2 POP PUSH1 0x20 DUP2 ADD SWAP1 POP PUSH2 0x2889 JUMP JUMPDEST DUP4 DUP9 ADD SWAP6 POP POP POP JUMPDEST POP POP POP SWAP3 SWAP2 POP POP JUMP JUMPDEST PUSH1 0x0 PUSH2 0x28C5 DUP3 DUP8 PUSH2 0x2836 JUMP JUMPDEST SWAP2 POP PUSH2 0x28D0 DUP3 PUSH2 0x2550 JUMP JUMPDEST PUSH1 0x1 DUP3 ADD SWAP2 POP PUSH2 0x28E0 DUP3 DUP7 PUSH2 0x2836 JUMP JUMPDEST SWAP2 POP PUSH2 0x28EB DUP3 PUSH2 0x2550 JUMP JUMPDEST PUSH1 0x1 DUP3 ADD SWAP2 POP PUSH2 0x28FB DUP3 DUP6 PUSH2 0x2836 JUMP JUMPDEST SWAP2 POP PUSH2 0x2906 DUP3 PUSH2 0x2550 JUMP JUMPDEST PUSH1 0x1 DUP3 ADD SWAP2 POP PUSH2 0x2916 DUP3 DUP5 PUSH2 0x251F JUMP JUMPDEST SWAP2 POP DUP2 SWAP1 POP SWAP6 SWAP5 POP POP POP POP POP JUMP JUMPDEST PUSH32 0x4E487B7100000000000000000000000000000000000000000000000000000000 PUSH1 0x0 MSTORE PUSH1 0x32 PUSH1 0x4 MSTORE PUSH1 0x24 PUSH1 0x0 REVERT JUMPDEST PUSH1 0x0 PUSH2 0x295F DUP3 DUP5 PUSH2 0x2836 JUMP JUMPDEST SWAP2 POP DUP2 SWAP1 POP SWAP3 SWAP2 POP POP JUMP JUMPDEST PUSH1 0x0 PUSH2 0x2976 DUP3 DUP5 PUSH2 0x251F JUMP JUMPDEST SWAP2 POP DUP2 SWAP1 POP SWAP3 SWAP2 POP POP JUMP JUMPDEST PUSH32 0x4E487B7100000000000000000000000000000000000000000000000000000000 PUSH1 0x0 MSTORE PUSH1 0x11 PUSH1 0x4 MSTORE PUSH1 0x24 PUSH1 0x0 REVERT JUMPDEST PUSH1 0x0 PUSH2 0x29BB DUP3 PUSH2 0x20A5 JUMP JUMPDEST SWAP2 POP PUSH2 0x29C6 DUP4 PUSH2 0x20A5 JUMP JUMPDEST SWAP3 POP DUP3 DUP3 ADD SWAP1 POP DUP1 DUP3 GT ISZERO PUSH2 0x29DE JUMPI PUSH2 0x29DD PUSH2 0x2981 JUMP JUMPDEST JUMPDEST SWAP3 SWAP2 POP POP JUMP JUMPDEST PUSH1 0x0 DUP2 SWAP1 POP SWAP2 SWAP1 POP JUMP JUMPDEST PUSH2 0x29FF PUSH2 0x29FA DUP3 PUSH2 0x20A5 JUMP JUMPDEST PUSH2 0x29E4 JUMP JUMPDEST DUP3 MSTORE POP POP JUMP JUMPDEST PUSH1 0x0 PUSH2 0x2A11 DUP3 DUP7 PUSH2 0x251F JUMP JUMPDEST SWAP2 POP PUSH2 0x2A1D DUP3 DUP6 PUSH2 0x29EE JUMP JUMPDEST PUSH1 0x20 DUP3 ADD SWAP2 POP PUSH2 0x2A2D DUP3 DUP5 PUSH2 0x29EE JUMP JUMPDEST PUSH1 0x20 DUP3 ADD SWAP2 POP DUP2 SWAP1 POP SWAP5 SWAP4 POP POP POP POP JUMP JUMPDEST PUSH1 0x0 PUSH2 0x2A49 DUP3 PUSH2 0x20A5 JUMP JUMPDEST SWAP2 POP PUSH32 0xFFFFFFFFFFFFFFFFFFFFFFFFFFFFFFFFFFFFFFFFFFFFFFFFFFFFFFFFFFFFFFFF DUP3 SUB PUSH2 0x2A7B JUMPI PUSH2 0x2A7A PUSH2 0x2981 JUMP JUMPDEST JUMPDEST PUSH1 0x1 DUP3 ADD SWAP1 POP SWAP2 SWAP1 POP JUMP JUMPDEST PUSH1 0x0 PUSH1 0xC0 DUP3 ADD SWAP1 POP DUP2 DUP2 SUB PUSH1 0x0 DUP4 ADD MSTORE PUSH2 0x2AA0 DUP2 DUP10 PUSH2 0x2283 JUMP JUMPDEST SWAP1 POP DUP2 DUP2 SUB PUSH1 0x20 DUP4 ADD MSTORE PUSH2 0x2AB4 DUP2 DUP9 PUSH2 0x2283 JUMP JUMPDEST SWAP1 POP PUSH2 0x2AC3 PUSH1 0x40 DUP4 ADD DUP8 PUSH2 0x20AF JUMP JUMPDEST PUSH2 0x2AD0 PUSH1 0x60 DUP4 ADD DUP7 PUSH2 0x1F3A JUMP JUMPDEST PUSH2 0x2ADD PUSH1 0x80 DUP4 ADD DUP6 PUSH2 0x1ED0 JUMP JUMPDEST DUP2 DUP2 SUB PUSH1 0xA0 DUP4 ADD MSTORE PUSH2 0x2AEF DUP2 DUP5 PUSH2 0x1C2B JUMP JUMPDEST SWAP1 POP SWAP8 SWAP7 POP POP POP POP POP POP POP JUMP JUMPDEST PUSH32 0x496E636F72726563742066656520616D6F756E74000000000000000000000000 PUSH1 0x0 DUP3 ADD MSTORE POP JUMP JUMPDEST PUSH1 0x0 PUSH2 0x2B32 PUSH1 0x14 DUP4 PUSH2 0x2272 JUMP JUMPDEST SWAP2 POP PUSH2 0x2B3D DUP3 PUSH2 0x2AFC JUMP JUMPDEST PUSH1 0x20 DUP3 ADD SWAP1 POP SWAP2 SWAP1 POP JUMP JUMPDEST PUSH1 0x0 PUSH1 0x20 DUP3 ADD SWAP1 POP DUP2 DUP2 SUB PUSH1 0x0 DUP4 ADD MSTORE PUSH2 0x2B61 DUP2 PUSH2 0x2B25 JUMP JUMPDEST SWAP1 POP SWAP2 SWAP1 POP JUMP JUMPDEST PUSH32 0x4E487B7100000000000000000000000000000000000000000000000000000000 PUSH1 0x0 MSTORE PUSH1 0x12 PUSH1 0x4 MSTORE PUSH1 0x24 PUSH1 0x0 REVERT INVALID LOG2 PUSH5 0x6970667358 0x22 SLT KECCAK256 0x1E DUP14 0x28 SWAP2 0xE 0xCF 0xB6 0xB8 0x29 DUP5 MSTORE8 0xB6 SMOD 0xB2 DUP16 CREATE LOG1 KECCAK256 0xAB 0xAB 0xBA 0xBA SWAP4 INVALID DUP10 MOD ADDRESS PUSH5 0x2B1C272964 PUSH20 0x6F6C634300081C00330000000000000000000000 "},"methodIdentifiers":{"CheckID()":"a21a269d","CheckPath(bytes32)":"396436b0","CheckRole(address)":"e7d7ecb8","NewInstance(address,string)":"c44f5da3","PayToView(bytes32)":"e27af26f","Purchase(address,bytes32,string)":"5e28c086","Register(address,string,string,string)":"dc47bfcd","Transfer(address,bytes32)":"685c13ad","Withdraw()":"57ea89b6","fee()":"ddca3f43","owner()":"8da5cb5b"}}}}}